{
  "contractName": "ActivateBackup",
  "abi": [
    {
      "inputs": [
        {
          "internalType": "address",
          "name": "_oneContractAddr",
          "type": "address"
        }
      ],
      "payable": false,
      "stateMutability": "nonpayable",
      "type": "constructor"
    },
    {
      "constant": false,
      "inputs": [
        {
          "internalType": "string",
          "name": "_idNo",
          "type": "string"
        },
        {
          "internalType": "string",
          "name": "_email",
          "type": "string"
        },
        {
          "internalType": "string",
          "name": "_password",
          "type": "string"
        }
      ],
      "name": "activateBackup",
      "outputs": [],
      "payable": false,
      "stateMutability": "nonpayable",
      "type": "function"
    }
  ],
  "bytecode": "0x608060405234801561001057600080fd5b506040516104e63803806104e68339818101604052602081101561003357600080fd5b8101908080519060200190929190505050806000806101000a81548173ffffffffffffffffffffffffffffffffffffffff021916908373ffffffffffffffffffffffffffffffffffffffff16021790555050610452806100946000396000f3fe608060405234801561001057600080fd5b506004361061002b5760003560e01c8063f000324b14610030575b600080fd5b6102176004803603606081101561004657600080fd5b810190808035906020019064010000000081111561006357600080fd5b82018360208201111561007557600080fd5b8035906020019184600183028401116401000000008311171561009757600080fd5b91908080601f016020809104026020016040519081016040528093929190818152602001838380828437600081840152601f19601f820116905080830192505050505050509192919290803590602001906401000000008111156100fa57600080fd5b82018360208201111561010c57600080fd5b8035906020019184600183028401116401000000008311171561012e57600080fd5b91908080601f016020809104026020016040519081016040528093929190818152602001838380828437600081840152601f19601f8201169050808301925050505050505091929192908035906020019064010000000081111561019157600080fd5b8201836020820111156101a357600080fd5b803590602001918460018302840111640100000000831117156101c557600080fd5b91908080601f016020809104026020016040519081016040528093929190818152602001838380828437600081840152601f19601f820116905080830192505050505050509192919290505050610219565b005b6000809054906101000a900473ffffffffffffffffffffffffffffffffffffffff1673ffffffffffffffffffffffffffffffffffffffff166314c80fca848484336040518563ffffffff1660e01b8152600401808060200180602001806020018573ffffffffffffffffffffffffffffffffffffffff1673ffffffffffffffffffffffffffffffffffffffff168152602001848103845288818151815260200191508051906020019080838360005b838110156102e35780820151818401526020810190506102c8565b50505050905090810190601f1680156103105780820380516001836020036101000a031916815260200191505b50848103835287818151815260200191508051906020019080838360005b8381101561034957808201518184015260208101905061032e565b50505050905090810190601f1680156103765780820380516001836020036101000a031916815260200191505b50848103825286818151815260200191508051906020019080838360005b838110156103af578082015181840152602081019050610394565b50505050905090810190601f1680156103dc5780820380516001836020036101000a031916815260200191505b50975050505050505050600060405180830381600087803b15801561040057600080fd5b505af1158015610414573d6000803e3d6000fd5b5050505050505056fea265627a7a72315820324279d1a9f8a91cc50c04b39be7272efd4733cfe6e6e5e86cefc3b76ae6664464736f6c63430005100032",
  "source": "// SPDX-License-Identifier: MIT\npragma solidity <= 0.7.6;\n\ncontract MainContract {\n    \n    /* backup variable */\n    string email; \n    string password;\n    string idno;\n    address[] owners;\n    address mainowner;\n    mapping(address => bool) isOwner;\n    uint revisepo;\n    uint totalpo;\n    \n    //event\n    event Deposit(address user,uint deamount);\n    event Withdraw(address user,uint wiamount);\n    \n    //modifier\n    modifier onlyOwner (address addr){\n        require(isOwner[addr], \"not owner\");\n        _;\n    }\n    \n    modifier checkSameOwner (address addr){\n        require(mainowner == addr, \"not contract owner\");\n        _;\n    }\n\n    modifier checkSameId (string memory _idNo){\n        require(keccak256(abi.encodePacked((idno))) == keccak256(abi.encodePacked((_idNo))), \"not correct id\");\n        _;\n    }\n    \n    constructor (string memory _id) public {\n        email = \"\";\n        password = \"\";\n        idno =_id;\n        owners = [msg.sender];\n        mainowner = msg.sender;\n        isOwner[msg.sender] = true;\n         //mailexist[\"barbie@mail\"]=true;\n        //portions[\"barbie@mail\"]=0;\n        //beneficiaryidentity.push(\"0000000000\");\n        //identity[\"barbie@mail\"]=\"0000000000\";\n    }\n    \n    /* bank function */\n    \n    //deposit\n    function deposit() public payable checkSameOwner(msg.sender){\n        emit Deposit(msg.sender,msg.value);\n    }\n    \n    //withdraw\n    function withdraw(uint _amount) public payable checkSameOwner(msg.sender){\n        require((_amount) <= address(this).balance, \"not enough funds\");\n        (bool sent, ) = msg.sender.call.value(_amount)(\"\");\n        require(sent, \"Failed to send Ether\");\n        emit Withdraw(msg.sender,_amount*10**18);\n    }\n    \n    //balance\n    function getBalance() public view returns (uint) {\n        return address(this).balance;\n    }\n\n    //id\n    function getIdno() external view returns (string memory){\n        return idno;\n    }\n    \n    /* backup function */\n    \n    //create back-up, setting email and password\n    function setBackup(string calldata _email,string calldata _password,string calldata _idNo,address _call) external checkSameOwner(_call) checkSameId(_idNo){\n        email = _email;\n        password = _password;\n    }\n    \n    //check email and password\n    function checksubmitTransaction(string calldata _idNo, string calldata _email,string calldata _password,address payable _to) external checkSameId(_idNo){\n        require(keccak256(abi.encodePacked((email))) != keccak256(abi.encodePacked((\"\"))),\"Do not set the back-up mechanism email.\");\n        require(keccak256(abi.encodePacked((_email))) == keccak256(abi.encodePacked((email))),\"Please enter the former email.\");\n        require(keccak256(abi.encodePacked((password))) != keccak256(abi.encodePacked((\"\"))),\"Do not set the back-up mechanism password.\");\n        require(keccak256(abi.encodePacked((_password))) == keccak256(abi.encodePacked((password))),\"Please enter the former password.\");\n        addOwners(_to);\n        destroySmartContract(_to);\n    }\n    \n    //add the activater into owers to activate the mechanism\n    function addOwners(address _newaddress) private{\n        owners.push(_newaddress);\n        isOwner[_newaddress] = true;\n    }\n    \n    //destroy the contract and take the ether back\n    function destroySmartContract(address payable _to) internal onlyOwner(_to){\n        selfdestruct(_to);\n    }\n    \n    /* beneficiary variable */\n    \n    string owneremail; \n    struct Beneficiary{\n        string beneficiaryemail;\n        uint portion;\n        bool execute;\n    }\n    mapping(uint=>Beneficiary) beneficiaryinfo;\n    uint[]  beneficiaryids;\n    string[] beneficiarymails;\n    mapping(string=>bool) mailexist;\n    mapping(string=>uint) portions;\n    mapping(address=>uint) transferamount;\n    string[] beneficiaryidentity;\n    mapping(string=>string) identity;\n    mapping(string=>bool) idexist;\n    address payable[] toadds;\n    uint[] reviseportion;\n    \n    /* beneficiary function */\n    \n    //ower email\n    function submitEmail(string memory _ownermail) public {\n       owneremail = _ownermail;\n    }\n    \n    function getOwnerEmail() public view returns (string memory) {\n        return owneremail;\n    }\n    \n    function addbene(string memory _benemail,uint _distriburate,string memory _identity) public checkSameOwner(msg.sender){\n       require(getBalance() > 0);\n       uint id = beneficiaryids.length + 1;\n       Beneficiary storage newbene = beneficiaryinfo[id];\n       newbene.beneficiaryemail = _benemail;\n       newbene.portion = _distriburate;\n       newbene.execute = false;\n       beneficiaryids.push(id);\n       beneficiarymails.push(_benemail);\n       mailexist[_benemail] = true;\n       portions[_benemail] = _distriburate;\n       beneficiaryidentity.push(_identity);\n       identity[_benemail]=_identity;\n       idexist[_identity]=true;\n    }\n    \n    //check beneficiary info\n    function getBeneficiary(uint _id) public view returns (string memory,uint,bool){\n        Beneficiary storage s = beneficiaryinfo[_id];\n        return (s.beneficiaryemail,s.portion,s.execute);\n    }\n\n    function getbeneficiarybymail(string memory _mail) public view returns(bool){\n        return mailexist[_mail];\n    }\n\n    function getportion(string memory _mail) public view returns(uint){\n        return portions[_mail];\n    }\n\n    function getbeneficiaryidbymail(string memory _mail) public view returns(string memory){\n        return identity[_mail];\n    }\n    //change beneficiary portion\n    function modifybene(uint _id,string memory _mail,uint _portion)public checkSameOwner(msg.sender){\n        Beneficiary storage s = beneficiaryinfo[_id];\n        s.portion = _portion;\n        portions[_mail] = _portion;\n    }\n    /*function submitTransaction(address payable _to,uint _portion) payable public {\n        toadds.push(_to);\n        transferamount[_to] = address(this).balance / 100 * _portion;\n        if (toadds.length == beneficiarymails.length) {\n           for (uint i = 0; i < toadds.length; i++) {\n             toadds[i].transfer(transferamount[toadds[i]]);  \n           }\n        }\n    }*/\n    function submitTransaction(address payable _to,uint _portion) public {\n        toadds.push(_to);\n        //reviseportion.push(_portion);\n        transferamount[_to]=address(this).balance/100*_portion;\n        if(toadds.length==beneficiarymails.length){\n           for(uint i=0;i<toadds.length;i++){\n            //    for(uint r=0;r<reviseportion.length;r++){\n            //  totalpo+=reviseportion[r];\n            //  revisepo=100*_portion/totalpo;\n            //  transferamount[_to]=address(this).balance/100*revisepo;\n                toadds[i].transfer(transferamount[toadds[i]]); \n           }\n        }\n        //_to.transfer(address(this).balance/100*_portion);}\n    }\n    \n    \n    /* not use just for check */\n    \n    function getisOwners(address _checkaddress) public view returns (bool) {\n        return isOwner[_checkaddress];\n    }\n    \n    function getEmail() public view returns (string memory) {\n        return email;\n    }\n    \n    function getPassword() public view returns (string memory) {\n        return password;\n    }\n    \n    function getOwners() public view returns (address[] memory) {\n        return owners;\n    }\n    \n    function returnlen() public view returns (uint) {\n        return beneficiarymails.length;\n    }\n\n    \n    // function submitTransaction(address payable _to) public onlyOwner(_to){\n    //     _to.transfer(address(this).balance);\n    //     activated = true;\n    // }\n}\n\ncontract Backup {\n    MainContract maincontract;\n    constructor (address _oneContractAddr) public {\n        maincontract = MainContract(_oneContractAddr);\n    }\n    \n    function setBackup(string memory _email,string memory _password,string memory _idNo) public {\n        maincontract.setBackup(_email,_password,_idNo,msg.sender);\n        \n    }\n    function activateBackup(string calldata _idNo, string calldata _email,string calldata _password,address payable _to) external {\n        maincontract.checksubmitTransaction(_idNo,_email,_password,_to);\n    }\n\n    function getEmail() public view returns (string memory){\n        return maincontract.getEmail();\n    }\n    function getIdno() public view returns (string memory){\n        return maincontract.getIdno();\n    }\n    \n    \n}\n\ncontract ActivateBackup {\n    Backup backup;\n    constructor (address _oneContractAddr) public {\n        backup = Backup(_oneContractAddr);\n    }\n    // function getbackaddress() public view returns (Backup){\n    //     return backup;\n    // }\n    // function checkContract(address _contractaddress,string memory _email,string memory _password) public {\n    //     Backup a = backup;\n    //     backup = Backup(_contractaddress);\n    //     activateBackup(_email,_password);\n    //     backup = a;\n    // }\n    // constructor (address _oneContractAddr,string memory _email,string memory _password) public {\n    //     backup = Backup(_oneContractAddr);\n    //     email = _email;\n    //     password = _password;\n\n    // }\n    function activateBackup(string memory _idNo, string memory _email,string memory _password) public {\n        backup.activateBackup(_idNo,_email,_password,msg.sender);\n    }\n    \n}\n\ncontract setpassword {\n    MainContract maincontract;\n    bytes32 password;\n    uint portion;\n    mapping (address => bytes32) beneficiarypass;\n    mapping (string => uint) portions;\n    mapping (address => string) mail;\n    bool act;\n\n    constructor (address _oneContractAddr) public {\n        maincontract = MainContract(_oneContractAddr);\n    }\n    \n    function passset(string memory _mail,string memory _password,string memory _identity) public {\n        require(maincontract.getbeneficiarybymail(_mail) == true&&keccak256(abi.encodePacked((maincontract.getbeneficiaryidbymail(_mail))))==keccak256(abi.encodePacked(_identity)));\n        password = keccak256(abi.encode(_password));\n        beneficiarypass[msg.sender] = password;\n        mail[msg.sender] = _mail;\n        act=false;\n    }\n     \n    function getmail() public view returns (string memory) {\n        return mail[msg.sender];\n    }\n    \n    function getpassword() public view returns (bytes32) {\n        return beneficiarypass[msg.sender];\n    }\n    \n    function getmypo() public view returns (uint) {\n        return maincontract.getportion(mail[msg.sender]);\n    }\n    \n    function execute (string memory _password) public payable{\n        require(keccak256(abi.encode(_password)) == beneficiarypass[msg.sender]);\n        require(act == false);\n        portion = maincontract.getportion(mail[msg.sender]);\n        maincontract.submitTransaction(msg.sender,portion);\n        act=true;\n\n     }\n\n\n}",
  "sourcePath": "/Users/chanchu-ting/dapp-testamentary/contracts/MainContract.sol",
  "compiler": {
    "name": "solc",
    "version": "0.5.16+commit.9c3226ce.Emscripten.clang"
  },
  "schemaVersion": "3.3.3",
  "updatedAt": "2021-09-03T06:54:05.675Z",
  "devdoc": {
    "methods": {}
  },
  "userdoc": {
    "methods": {}
  }
}