{
  "contractName": "MainContract",
  "abi": [
    {
      "inputs": [
        {
          "internalType": "string",
          "name": "_id",
          "type": "string"
        }
      ],
      "payable": false,
      "stateMutability": "nonpayable",
      "type": "constructor"
    },
    {
      "anonymous": false,
      "inputs": [
        {
          "indexed": false,
          "internalType": "address",
          "name": "user",
          "type": "address"
        },
        {
          "indexed": false,
          "internalType": "uint256",
          "name": "deamount",
          "type": "uint256"
        }
      ],
      "name": "Deposit",
      "type": "event"
    },
    {
      "anonymous": false,
      "inputs": [
        {
          "indexed": false,
          "internalType": "address",
          "name": "user",
          "type": "address"
        },
        {
          "indexed": false,
          "internalType": "uint256",
          "name": "wiamount",
          "type": "uint256"
        }
      ],
      "name": "Withdraw",
      "type": "event"
    },
    {
      "constant": false,
      "inputs": [],
      "name": "deposit",
      "outputs": [],
      "payable": true,
      "stateMutability": "payable",
      "type": "function"
    },
    {
      "constant": false,
      "inputs": [
        {
          "internalType": "uint256",
          "name": "_amount",
          "type": "uint256"
        }
      ],
      "name": "withdraw",
      "outputs": [],
      "payable": true,
      "stateMutability": "payable",
      "type": "function"
    },
    {
      "constant": true,
      "inputs": [],
      "name": "getBalance",
      "outputs": [
        {
          "internalType": "uint256",
          "name": "",
          "type": "uint256"
        }
      ],
      "payable": false,
      "stateMutability": "view",
      "type": "function"
    },
    {
      "constant": true,
      "inputs": [],
      "name": "getIdno",
      "outputs": [
        {
          "internalType": "string",
          "name": "",
          "type": "string"
        }
      ],
      "payable": false,
      "stateMutability": "view",
      "type": "function"
    },
    {
      "constant": false,
      "inputs": [
        {
          "internalType": "string",
          "name": "_email",
          "type": "string"
        },
        {
          "internalType": "string",
          "name": "_password",
          "type": "string"
        },
        {
          "internalType": "string",
          "name": "_idNo",
          "type": "string"
        },
        {
          "internalType": "address",
          "name": "_call",
          "type": "address"
        }
      ],
      "name": "setBackup",
      "outputs": [],
      "payable": false,
      "stateMutability": "nonpayable",
      "type": "function"
    },
    {
      "constant": false,
      "inputs": [
        {
          "internalType": "string",
          "name": "_idNo",
          "type": "string"
        },
        {
          "internalType": "string",
          "name": "_email",
          "type": "string"
        },
        {
          "internalType": "string",
          "name": "_password",
          "type": "string"
        },
        {
          "internalType": "address payable",
          "name": "_to",
          "type": "address"
        }
      ],
      "name": "checksubmitTransaction",
      "outputs": [],
      "payable": false,
      "stateMutability": "nonpayable",
      "type": "function"
    },
    {
      "constant": false,
      "inputs": [
        {
          "internalType": "string",
          "name": "_ownermail",
          "type": "string"
        }
      ],
      "name": "submitEmail",
      "outputs": [],
      "payable": false,
      "stateMutability": "nonpayable",
      "type": "function"
    },
    {
      "constant": true,
      "inputs": [],
      "name": "getOwnerEmail",
      "outputs": [
        {
          "internalType": "string",
          "name": "",
          "type": "string"
        }
      ],
      "payable": false,
      "stateMutability": "view",
      "type": "function"
    },
    {
      "constant": false,
      "inputs": [],
      "name": "create",
      "outputs": [],
      "payable": false,
      "stateMutability": "nonpayable",
      "type": "function"
    },
    {
      "constant": false,
      "inputs": [
        {
          "internalType": "string",
          "name": "_benemail",
          "type": "string"
        },
        {
          "internalType": "uint256",
          "name": "_distriburate",
          "type": "uint256"
        }
      ],
      "name": "addbene",
      "outputs": [],
      "payable": false,
      "stateMutability": "nonpayable",
      "type": "function"
    },
    {
      "constant": true,
      "inputs": [
        {
          "internalType": "uint256",
          "name": "_id",
          "type": "uint256"
        }
      ],
      "name": "getBeneficiary",
      "outputs": [
        {
          "internalType": "string",
          "name": "",
          "type": "string"
        },
        {
          "internalType": "uint256",
          "name": "",
          "type": "uint256"
        },
        {
          "internalType": "bool",
          "name": "",
          "type": "bool"
        }
      ],
      "payable": false,
      "stateMutability": "view",
      "type": "function"
    },
    {
      "constant": true,
      "inputs": [
        {
          "internalType": "string",
          "name": "_mail",
          "type": "string"
        }
      ],
      "name": "getbeneficiarybymail",
      "outputs": [
        {
          "internalType": "bool",
          "name": "",
          "type": "bool"
        }
      ],
      "payable": false,
      "stateMutability": "view",
      "type": "function"
    },
    {
      "constant": true,
      "inputs": [
        {
          "internalType": "string",
          "name": "_mail",
          "type": "string"
        }
      ],
      "name": "getportion",
      "outputs": [
        {
          "internalType": "uint256",
          "name": "",
          "type": "uint256"
        }
      ],
      "payable": false,
      "stateMutability": "view",
      "type": "function"
    },
    {
      "constant": false,
      "inputs": [
        {
          "internalType": "uint256",
          "name": "_id",
          "type": "uint256"
        },
        {
          "internalType": "string",
          "name": "_mail",
          "type": "string"
        },
        {
          "internalType": "uint256",
          "name": "_portion",
          "type": "uint256"
        }
      ],
      "name": "modifybene",
      "outputs": [],
      "payable": false,
      "stateMutability": "nonpayable",
      "type": "function"
    },
    {
      "constant": false,
      "inputs": [
        {
          "internalType": "address payable",
          "name": "_to",
          "type": "address"
        },
        {
          "internalType": "uint256",
          "name": "_portion",
          "type": "uint256"
        }
      ],
      "name": "submitTransaction",
      "outputs": [],
      "payable": false,
      "stateMutability": "nonpayable",
      "type": "function"
    },
    {
      "constant": true,
      "inputs": [
        {
          "internalType": "address",
          "name": "_checkaddress",
          "type": "address"
        }
      ],
      "name": "getisOwners",
      "outputs": [
        {
          "internalType": "bool",
          "name": "",
          "type": "bool"
        }
      ],
      "payable": false,
      "stateMutability": "view",
      "type": "function"
    },
    {
      "constant": true,
      "inputs": [],
      "name": "getEmail",
      "outputs": [
        {
          "internalType": "string",
          "name": "",
          "type": "string"
        }
      ],
      "payable": false,
      "stateMutability": "view",
      "type": "function"
    },
    {
      "constant": true,
      "inputs": [],
      "name": "getPassword",
      "outputs": [
        {
          "internalType": "string",
          "name": "",
          "type": "string"
        }
      ],
      "payable": false,
      "stateMutability": "view",
      "type": "function"
    },
    {
      "constant": true,
      "inputs": [],
      "name": "getOwners",
      "outputs": [
        {
          "internalType": "address[]",
          "name": "",
          "type": "address[]"
        }
      ],
      "payable": false,
      "stateMutability": "view",
      "type": "function"
    },
    {
      "constant": true,
      "inputs": [],
      "name": "returnlen",
      "outputs": [
        {
          "internalType": "uint256",
          "name": "",
          "type": "uint256"
        }
      ],
      "payable": false,
      "stateMutability": "view",
      "type": "function"
    }
  ],
  "bytecode": "0x60806040523480156200001157600080fd5b5060405162002bc538038062002bc5833981810160405260208110156200003757600080fd5b81019080805160405193929190846401000000008211156200005857600080fd5b838201915060208201858111156200006f57600080fd5b82518660018202830111640100000000821117156200008d57600080fd5b8083526020830192505050908051906020019080838360005b83811015620000c3578082015181840152602081019050620000a6565b50505050905090810190601f168015620000f15780820380516001836020036101000a031916815260200191505b5060405250505060405180602001604052806000815250600090805190602001906200011f9291906200024f565b506040518060200160405280600081525060019080519060200190620001479291906200024f565b508060029080519060200190620001609291906200024f565b5060405180602001604052803373ffffffffffffffffffffffffffffffffffffffff1673ffffffffffffffffffffffffffffffffffffffff168152506003906001620001ae929190620002d6565b5033600460006101000a81548173ffffffffffffffffffffffffffffffffffffffff021916908373ffffffffffffffffffffffffffffffffffffffff1602179055506001600560003373ffffffffffffffffffffffffffffffffffffffff1673ffffffffffffffffffffffffffffffffffffffff16815260200190815260200160002060006101000a81548160ff02191690831515021790555050620003d3565b828054600181600116156101000203166002900490600052602060002090601f016020900481019282601f106200029257805160ff1916838001178555620002c3565b82800160010185558215620002c3579182015b82811115620002c2578251825591602001919060010190620002a5565b5b509050620002d2919062000365565b5090565b82805482825590600052602060002090810192821562000352579160200282015b82811115620003515782518260006101000a81548173ffffffffffffffffffffffffffffffffffffffff021916908373ffffffffffffffffffffffffffffffffffffffff16021790555091602001919060010190620002f7565b5b5090506200036191906200038d565b5090565b6200038a91905b80821115620003865760008160009055506001016200036c565b5090565b90565b620003d091905b80821115620003cc57600081816101000a81549073ffffffffffffffffffffffffffffffffffffffff02191690555060010162000394565b5090565b90565b6127e280620003e36000396000f3fe60806040526004361061011f5760003560e01c80634349f268116100a0578063cc8e239411610064578063cc8e239414610a08578063d0e30db014610a98578063dbfc560a14610aa2578063e801932614610b6a578063efc81a8c14610cba5761011f565b80634349f268146106ce5780634ba42408146107aa5780637e79e8ba1461083a578063a0e67e2b146108ca578063b8d3d040146109365761011f565b8063302df083116100e7578063302df083146102d157806331c29c831461039757806333294497146103c257806336d587c5146105125780633f1fb69d146105ee5761011f565b806312065fe0146101245780631d43b6531461014f578063289cdf3c146101aa5780632e1a7d4d1461023a5780632e986e1614610268575b600080fd5b34801561013057600080fd5b50610139610cd1565b6040518082815260200191505060405180910390f35b34801561015b57600080fd5b506101a86004803603604081101561017257600080fd5b81019080803573ffffffffffffffffffffffffffffffffffffffff16906020019092919080359060200190929190505050610cd9565b005b3480156101b657600080fd5b506101bf610ebb565b6040518080602001828103825283818151815260200191508051906020019080838360005b838110156101ff5780820151818401526020810190506101e4565b50505050905090810190601f16801561022c5780820380516001836020036101000a031916815260200191505b509250505060405180910390f35b6102666004803603602081101561025057600080fd5b8101908080359060200190929190505050610f5d565b005b34801561027457600080fd5b506102b76004803603602081101561028b57600080fd5b81019080803573ffffffffffffffffffffffffffffffffffffffff1690602001909291905050506111ed565b604051808215151515815260200191505060405180910390f35b3480156102dd57600080fd5b5061030a600480360360208110156102f457600080fd5b8101908080359060200190929190505050611243565b604051808060200184815260200183151515158152602001828103825285818151815260200191508051906020019080838360005b8381101561035a57808201518184015260208101905061033f565b50505050905090810190601f1680156103875780820380516001836020036101000a031916815260200191505b5094505050505060405180910390f35b3480156103a357600080fd5b506103ac611324565b6040518082815260200191505060405180910390f35b3480156103ce57600080fd5b50610510600480360360808110156103e557600080fd5b810190808035906020019064010000000081111561040257600080fd5b82018360208201111561041457600080fd5b8035906020019184600183028401116401000000008311171561043657600080fd5b90919293919293908035906020019064010000000081111561045757600080fd5b82018360208201111561046957600080fd5b8035906020019184600183028401116401000000008311171561048b57600080fd5b9091929391929390803590602001906401000000008111156104ac57600080fd5b8201836020820111156104be57600080fd5b803590602001918460018302840111640100000000831117156104e057600080fd5b9091929391929390803573ffffffffffffffffffffffffffffffffffffffff169060200190929190505050611331565b005b34801561051e57600080fd5b506105d86004803603602081101561053557600080fd5b810190808035906020019064010000000081111561055257600080fd5b82018360208201111561056457600080fd5b8035906020019184600183028401116401000000008311171561058657600080fd5b91908080601f016020809104026020016040519081016040528093929190818152602001838380828437600081840152601f19601f8201169050808301925050505050505091929192905050506118f9565b6040518082815260200191505060405180910390f35b3480156105fa57600080fd5b506106b46004803603602081101561061157600080fd5b810190808035906020019064010000000081111561062e57600080fd5b82018360208201111561064057600080fd5b8035906020019184600183028401116401000000008311171561066257600080fd5b91908080601f016020809104026020016040519081016040528093929190818152602001838380828437600081840152601f19601f82011690508083019250505050505050919291929050505061196c565b604051808215151515815260200191505060405180910390f35b3480156106da57600080fd5b506107a8600480360360608110156106f157600080fd5b81019080803590602001909291908035906020019064010000000081111561071857600080fd5b82018360208201111561072a57600080fd5b8035906020019184600183028401116401000000008311171561074c57600080fd5b91908080601f016020809104026020016040519081016040528093929190818152602001838380828437600081840152601f19601f820116905080830192505050505050509192919290803590602001909291905050506119ec565b005b3480156107b657600080fd5b506107bf611b45565b6040518080602001828103825283818151815260200191508051906020019080838360005b838110156107ff5780820151818401526020810190506107e4565b50505050905090810190601f16801561082c5780820380516001836020036101000a031916815260200191505b509250505060405180910390f35b34801561084657600080fd5b5061084f611be7565b6040518080602001828103825283818151815260200191508051906020019080838360005b8381101561088f578082015181840152602081019050610874565b50505050905090810190601f1680156108bc5780820380516001836020036101000a031916815260200191505b509250505060405180910390f35b3480156108d657600080fd5b506108df611c89565b6040518080602001828103825283818151815260200191508051906020019060200280838360005b83811015610922578082015181840152602081019050610907565b505050509050019250505060405180910390f35b34801561094257600080fd5b50610a066004803603604081101561095957600080fd5b810190808035906020019064010000000081111561097657600080fd5b82018360208201111561098857600080fd5b803590602001918460018302840111640100000000831117156109aa57600080fd5b91908080601f016020809104026020016040519081016040528093929190818152602001838380828437600081840152601f19601f82011690508083019250505050505050919291929080359060200190929190505050611d17565b005b348015610a1457600080fd5b50610a1d611fb4565b6040518080602001828103825283818151815260200191508051906020019080838360005b83811015610a5d578082015181840152602081019050610a42565b50505050905090810190601f168015610a8a5780820380516001836020036101000a031916815260200191505b509250505060405180910390f35b610aa0612056565b005b348015610aae57600080fd5b50610b6860048036036020811015610ac557600080fd5b8101908080359060200190640100000000811115610ae257600080fd5b820183602082011115610af457600080fd5b80359060200191846001830284011164010000000083111715610b1657600080fd5b91908080601f016020809104026020016040519081016040528093929190818152602001838380828437600081840152601f19601f820116905080830192505050505050509192919290505050612188565b005b348015610b7657600080fd5b50610cb860048036036080811015610b8d57600080fd5b8101908080359060200190640100000000811115610baa57600080fd5b820183602082011115610bbc57600080fd5b80359060200191846001830284011164010000000083111715610bde57600080fd5b909192939192939080359060200190640100000000811115610bff57600080fd5b820183602082011115610c1157600080fd5b80359060200191846001830284011164010000000083111715610c3357600080fd5b909192939192939080359060200190640100000000811115610c5457600080fd5b820183602082011115610c6657600080fd5b80359060200191846001830284011164010000000083111715610c8857600080fd5b9091929391929390803573ffffffffffffffffffffffffffffffffffffffff1690602001909291905050506121a2565b005b348015610cc657600080fd5b50610ccf61243a565b005b600047905090565b600f8290806001815401808255809150509060018203906000526020600020016000909192909190916101000a81548173ffffffffffffffffffffffffffffffffffffffff021916908373ffffffffffffffffffffffffffffffffffffffff160217905550508060644781610d4a57fe5b0402600e60008473ffffffffffffffffffffffffffffffffffffffff1673ffffffffffffffffffffffffffffffffffffffff16815260200190815260200160002081905550600b80549050600f805490501415610eb75760008090505b600f80549050811015610eb557600f8181548110610dc157fe5b9060005260206000200160009054906101000a900473ffffffffffffffffffffffffffffffffffffffff1673ffffffffffffffffffffffffffffffffffffffff166108fc600e6000600f8581548110610e1657fe5b9060005260206000200160009054906101000a900473ffffffffffffffffffffffffffffffffffffffff1673ffffffffffffffffffffffffffffffffffffffff1673ffffffffffffffffffffffffffffffffffffffff168152602001908152602001600020549081150290604051600060405180830381858888f19350505050158015610ea7573d6000803e3d6000fd5b508080600101915050610da7565b505b5050565b606060028054600181600116156101000203166002900480601f016020809104026020016040519081016040528092919081815260200182805460018160011615610100020316600290048015610f535780601f10610f2857610100808354040283529160200191610f53565b820191906000526020600020905b815481529060010190602001808311610f3657829003601f168201915b5050505050905090565b338073ffffffffffffffffffffffffffffffffffffffff16600460009054906101000a900473ffffffffffffffffffffffffffffffffffffffff1673ffffffffffffffffffffffffffffffffffffffff1614611021576040517f08c379a00000000000000000000000000000000000000000000000000000000081526004018080602001828103825260128152602001807f6e6f7420636f6e7472616374206f776e6572000000000000000000000000000081525060200191505060405180910390fd5b47821115611097576040517f08c379a00000000000000000000000000000000000000000000000000000000081526004018080602001828103825260108152602001807f6e6f7420656e6f7567682066756e64730000000000000000000000000000000081525060200191505060405180910390fd5b60003373ffffffffffffffffffffffffffffffffffffffff168360405180600001905060006040518083038185875af1925050503d80600081146110f7576040519150601f19603f3d011682016040523d82523d6000602084013e6110fc565b606091505b5050905080611173576040517f08c379a00000000000000000000000000000000000000000000000000000000081526004018080602001828103825260148152602001807f4661696c656420746f2073656e6420457468657200000000000000000000000081525060200191505060405180910390fd5b7f884edad9ce6fa2440d8a54cc123490eb96d2768479d49ff9c7366125a942436433670de0b6b3a76400008502604051808373ffffffffffffffffffffffffffffffffffffffff1673ffffffffffffffffffffffffffffffffffffffff1681526020018281526020019250505060405180910390a1505050565b6000600560008373ffffffffffffffffffffffffffffffffffffffff1673ffffffffffffffffffffffffffffffffffffffff16815260200190815260200160002060009054906101000a900460ff169050919050565b606060008060006009600086815260200190815260200160002090508060000181600101548260020160009054906101000a900460ff16828054600181600116156101000203166002900480601f01602080910402602001604051908101604052809291908181526020018280546001816001161561010002031660029004801561130f5780601f106112e45761010080835404028352916020019161130f565b820191906000526020600020905b8154815290600101906020018083116112f257829003601f168201915b50505050509250935093509350509193909250565b6000600b80549050905090565b86868080601f016020809104026020016040519081016040528093929190818152602001838380828437600081840152601f19601f82011690508083019250505050505050806040516020018082805190602001908083835b602083106113ad578051825260208201915060208101905060208303925061138a565b6001836020036101000a03801982511681845116808217855250505050505090500191505060405160208183030381529060405280519060200120600260405160200180828054600181600116156101000203166002900480156114485780601f10611426576101008083540402835291820191611448565b820191906000526020600020905b815481529060010190602001808311611434575b505091505060405160208183030381529060405280519060200120146114d6576040517f08c379a000000000000000000000000000000000000000000000000000000000815260040180806020018281038252600e8152602001807f6e6f7420636f727265637420696400000000000000000000000000000000000081525060200191505060405180910390fd5b60405160200180600001905060405160208183030381529060405280519060200120600060405160200180828054600181600116156101000203166002900480156115585780601f10611536576101008083540402835291820191611558565b820191906000526020600020905b815481529060010190602001808311611544575b50509150506040516020818303038152906040528051906020012014156115ca576040517f08c379a00000000000000000000000000000000000000000000000000000000081526004018080602001828103825260278152602001806127876027913960400191505060405180910390fd5b6000604051602001808280546001816001161561010002031660029004801561162a5780601f1061160857610100808354040283529182019161162a565b820191906000526020600020905b815481529060010190602001808311611616575b505091505060405160208183030381529060405280519060200120868660405160200180838380828437808301925050509250505060405160208183030381529060405280519060200120146116e8576040517f08c379a000000000000000000000000000000000000000000000000000000000815260040180806020018281038252601e8152602001807f506c6561736520656e7465722074686520666f726d657220656d61696c2e000081525060200191505060405180910390fd5b604051602001806000019050604051602081830303815290604052805190602001206001604051602001808280546001816001161561010002031660029004801561176a5780601f1061174857610100808354040283529182019161176a565b820191906000526020600020905b815481529060010190602001808311611756575b50509150506040516020818303038152906040528051906020012014156117dc576040517f08c379a000000000000000000000000000000000000000000000000000000000815260040180806020018281038252602a81526020018061275d602a913960400191505060405180910390fd5b6001604051602001808280546001816001161561010002031660029004801561183c5780601f1061181a57610100808354040283529182019161183c565b820191906000526020600020905b815481529060010190602001808311611828575b505091505060405160208183030381529060405280519060200120848460405160200180838380828437808301925050509250505060405160208183030381529060405280519060200120146118dd576040517f08c379a000000000000000000000000000000000000000000000000000000000815260040180806020018281038252602181526020018061273c6021913960400191505060405180910390fd5b6118e68261247c565b6118ef8261253d565b5050505050505050565b6000600d826040518082805190602001908083835b60208310611931578051825260208201915060208101905060208303925061190e565b6001836020036101000a0380198251168184511680821785525050505050509050019150509081526020016040518091039020549050919050565b6000600c826040518082805190602001908083835b602083106119a45780518252602082019150602081019050602083039250611981565b6001836020036101000a038019825116818451168082178552505050505050905001915050908152602001604051809103902060009054906101000a900460ff169050919050565b338073ffffffffffffffffffffffffffffffffffffffff16600460009054906101000a900473ffffffffffffffffffffffffffffffffffffffff1673ffffffffffffffffffffffffffffffffffffffff1614611ab0576040517f08c379a00000000000000000000000000000000000000000000000000000000081526004018080602001828103825260128152602001807f6e6f7420636f6e7472616374206f776e6572000000000000000000000000000081525060200191505060405180910390fd5b600060096000868152602001908152602001600020905082816001018190555082600d856040518082805190602001908083835b60208310611b075780518252602082019150602081019050602083039250611ae4565b6001836020036101000a0380198251168184511680821785525050505050509050019150509081526020016040518091039020819055505050505050565b606060088054600181600116156101000203166002900480601f016020809104026020016040519081016040528092919081815260200182805460018160011615610100020316600290048015611bdd5780601f10611bb257610100808354040283529160200191611bdd565b820191906000526020600020905b815481529060010190602001808311611bc057829003601f168201915b5050505050905090565b606060008054600181600116156101000203166002900480601f016020809104026020016040519081016040528092919081815260200182805460018160011615610100020316600290048015611c7f5780601f10611c5457610100808354040283529160200191611c7f565b820191906000526020600020905b815481529060010190602001808311611c6257829003601f168201915b5050505050905090565b60606003805480602002602001604051908101604052809291908181526020018280548015611d0d57602002820191906000526020600020905b8160009054906101000a900473ffffffffffffffffffffffffffffffffffffffff1673ffffffffffffffffffffffffffffffffffffffff1681526020019060010190808311611cc3575b5050505050905090565b338073ffffffffffffffffffffffffffffffffffffffff16600460009054906101000a900473ffffffffffffffffffffffffffffffffffffffff1673ffffffffffffffffffffffffffffffffffffffff1614611ddb576040517f08c379a00000000000000000000000000000000000000000000000000000000081526004018080602001828103825260128152602001807f6e6f7420636f6e7472616374206f776e6572000000000000000000000000000081525060200191505060405180910390fd5b6000611de5610cd1565b11611def57600080fd5b60006001600a80549050019050600060096000838152602001908152602001600020905084816000019080519060200190611e2b929190612616565b5083816001018190555060008160020160006101000a81548160ff021916908315150217905550600a829080600181540180825580915050906001820390600052602060002001600090919290919091505550600b859080600181540180825580915050906001820390600052602060002001600090919290919091509080519060200190611ebb929190612616565b50506001600c866040518082805190602001908083835b60208310611ef55780518252602082019150602081019050602083039250611ed2565b6001836020036101000a038019825116818451168082178552505050505050905001915050908152602001604051809103902060006101000a81548160ff02191690831515021790555083600d866040518082805190602001908083835b60208310611f765780518252602082019150602081019050602083039250611f53565b6001836020036101000a0380198251168184511680821785525050505050509050019150509081526020016040518091039020819055505050505050565b606060018054600181600116156101000203166002900480601f01602080910402602001604051908101604052809291908181526020018280546001816001161561010002031660029004801561204c5780601f106120215761010080835404028352916020019161204c565b820191906000526020600020905b81548152906001019060200180831161202f57829003601f168201915b5050505050905090565b338073ffffffffffffffffffffffffffffffffffffffff16600460009054906101000a900473ffffffffffffffffffffffffffffffffffffffff1673ffffffffffffffffffffffffffffffffffffffff161461211a576040517f08c379a00000000000000000000000000000000000000000000000000000000081526004018080602001828103825260128152602001807f6e6f7420636f6e7472616374206f776e6572000000000000000000000000000081525060200191505060405180910390fd5b7fe1fffcc4923d04b559f4d29a8bfc6cda04eb5b0d3c460751c2402c5c5cc9109c3334604051808373ffffffffffffffffffffffffffffffffffffffff1673ffffffffffffffffffffffffffffffffffffffff1681526020018281526020019250505060405180910390a150565b806008908051906020019061219e929190612616565b5050565b808073ffffffffffffffffffffffffffffffffffffffff16600460009054906101000a900473ffffffffffffffffffffffffffffffffffffffff1673ffffffffffffffffffffffffffffffffffffffff1614612266576040517f08c379a00000000000000000000000000000000000000000000000000000000081526004018080602001828103825260128152602001807f6e6f7420636f6e7472616374206f776e6572000000000000000000000000000081525060200191505060405180910390fd5b83838080601f016020809104026020016040519081016040528093929190818152602001838380828437600081840152601f19601f82011690508083019250505050505050806040516020018082805190602001908083835b602083106122e257805182526020820191506020810190506020830392506122bf565b6001836020036101000a038019825116818451168082178552505050505050905001915050604051602081830303815290604052805190602001206002604051602001808280546001816001161561010002031660029004801561237d5780601f1061235b57610100808354040283529182019161237d565b820191906000526020600020905b815481529060010190602001808311612369575b5050915050604051602081830303815290604052805190602001201461240b576040517f08c379a000000000000000000000000000000000000000000000000000000000815260040180806020018281038252600e8152602001807f6e6f7420636f727265637420696400000000000000000000000000000000000081525060200191505060405180910390fd5b88886000919061241c929190612696565b5086866001919061242e929190612696565b50505050505050505050565b61247a6040518060400160405280600b81526020017f626172626965406d61696c0000000000000000000000000000000000000000008152506000611d17565b565b60038190806001815401808255809150509060018203906000526020600020016000909192909190916101000a81548173ffffffffffffffffffffffffffffffffffffffff021916908373ffffffffffffffffffffffffffffffffffffffff160217905550506001600560008373ffffffffffffffffffffffffffffffffffffffff1673ffffffffffffffffffffffffffffffffffffffff16815260200190815260200160002060006101000a81548160ff02191690831515021790555050565b80600560008273ffffffffffffffffffffffffffffffffffffffff1673ffffffffffffffffffffffffffffffffffffffff16815260200190815260200160002060009054906101000a900460ff166125fd576040517f08c379a00000000000000000000000000000000000000000000000000000000081526004018080602001828103825260098152602001807f6e6f74206f776e6572000000000000000000000000000000000000000000000081525060200191505060405180910390fd5b8173ffffffffffffffffffffffffffffffffffffffff16ff5b828054600181600116156101000203166002900490600052602060002090601f016020900481019282601f1061265757805160ff1916838001178555612685565b82800160010185558215612685579182015b82811115612684578251825591602001919060010190612669565b5b5090506126929190612716565b5090565b828054600181600116156101000203166002900490600052602060002090601f016020900481019282601f106126d757803560ff1916838001178555612705565b82800160010185558215612705579182015b828111156127045782358255916020019190600101906126e9565b5b5090506127129190612716565b5090565b61273891905b8082111561273457600081600090555060010161271c565b5090565b9056fe506c6561736520656e7465722074686520666f726d65722070617373776f72642e446f206e6f742073657420746865206261636b2d7570206d656368616e69736d2070617373776f72642e446f206e6f742073657420746865206261636b2d7570206d656368616e69736d20656d61696c2ea265627a7a72315820dc39fe4239a0927e03aaf3923e2dfe1a74a9daf82925eba07652ff2615b5258364736f6c63430005100032",
  "source": "// SPDX-License-Identifier: MIT\npragma solidity <= 0.7.6;\n\ncontract MainContract {\n    \n    /* backup variable */\n    string email; \n    string password;\n    string idno;\n    address[] owners;\n    address mainowner;\n    mapping(address => bool) isOwner;\n    uint revisepo;\n    uint totalpo;\n    \n    //event\n    event Deposit(address user,uint deamount);\n    event Withdraw(address user,uint wiamount);\n    \n    //modifier\n    modifier onlyOwner (address addr){\n        require(isOwner[addr], \"not owner\");\n        _;\n    }\n    \n    modifier checkSameOwner (address addr){\n        require(mainowner == addr, \"not contract owner\");\n        _;\n    }\n\n    modifier checkSameId (string memory _idNo){\n        require(keccak256(abi.encodePacked((idno))) == keccak256(abi.encodePacked((_idNo))), \"not correct id\");\n        _;\n    }\n    \n    constructor (string memory _id) public {\n        email = \"\";\n        password = \"\";\n        idno =_id;\n        owners = [msg.sender];\n        mainowner = msg.sender;\n        isOwner[msg.sender] = true;\n    }\n    \n    /* bank function */\n    \n    //deposit\n    function deposit() public payable checkSameOwner(msg.sender){\n        emit Deposit(msg.sender,msg.value);\n    }\n    \n    //withdraw\n    function withdraw(uint _amount) public payable checkSameOwner(msg.sender){\n        require((_amount) <= address(this).balance, \"not enough funds\");\n        (bool sent, ) = msg.sender.call.value(_amount)(\"\");\n        require(sent, \"Failed to send Ether\");\n        emit Withdraw(msg.sender,_amount*10**18);\n    }\n    \n    //balance\n    function getBalance() public view returns (uint) {\n        return address(this).balance;\n    }\n\n    //id\n    function getIdno() external view returns (string memory){\n        return idno;\n    }\n    \n    /* backup function */\n    \n    //create back-up, setting email and password\n    function setBackup(string calldata _email,string calldata _password,string calldata _idNo,address _call) external checkSameOwner(_call) checkSameId(_idNo){\n        email = _email;\n        password = _password;\n    }\n    \n    //check email and password\n    function checksubmitTransaction(string calldata _idNo, string calldata _email,string calldata _password,address payable _to) external checkSameId(_idNo){\n        require(keccak256(abi.encodePacked((email))) != keccak256(abi.encodePacked((\"\"))),\"Do not set the back-up mechanism email.\");\n        require(keccak256(abi.encodePacked((_email))) == keccak256(abi.encodePacked((email))),\"Please enter the former email.\");\n        require(keccak256(abi.encodePacked((password))) != keccak256(abi.encodePacked((\"\"))),\"Do not set the back-up mechanism password.\");\n        require(keccak256(abi.encodePacked((_password))) == keccak256(abi.encodePacked((password))),\"Please enter the former password.\");\n        addOwners(_to);\n        destroySmartContract(_to);\n    }\n    \n    //add the activater into owers to activate the mechanism\n    function addOwners(address _newaddress) private{\n        owners.push(_newaddress);\n        isOwner[_newaddress] = true;\n    }\n    \n    //destroy the contract and take the ether back\n    function destroySmartContract(address payable _to) internal onlyOwner(_to){\n        selfdestruct(_to);\n    }\n    \n    /* beneficiary variable */\n    \n    string owneremail; \n    struct Beneficiary{\n        string beneficiaryemail;\n        uint portion;\n        bool execute;\n    }\n    mapping(uint=>Beneficiary) beneficiaryinfo;\n    uint[]  beneficiaryids;\n    string[] beneficiarymails;\n    mapping(string=>bool) mailexist;\n    mapping(string=>uint) portions;\n    mapping(address=>uint) transferamount;\n    address payable[] toadds;\n    uint[] reviseportion;\n    \n    /* beneficiary function */\n    \n    //ower email\n    function submitEmail(string memory _ownermail) public {\n       owneremail = _ownermail;\n    }\n    \n    function getOwnerEmail() public view returns (string memory) {\n        return owneremail;\n    }\n    \n    //add beneficiary\n    function create() public{\n        addbene(\"barbie@mail\",0);\n    }\n    \n    function addbene(string memory _benemail,uint _distriburate) public checkSameOwner(msg.sender){\n       require(getBalance() > 0);\n       uint id = beneficiaryids.length + 1;\n       Beneficiary storage newbene = beneficiaryinfo[id];\n       newbene.beneficiaryemail = _benemail;\n       newbene.portion = _distriburate;\n       newbene.execute = false;\n       beneficiaryids.push(id);\n       beneficiarymails.push(_benemail);\n       mailexist[_benemail] = true;\n       portions[_benemail] = _distriburate;\n    }\n    \n    //check beneficiary info\n    function getBeneficiary(uint _id) public view returns (string memory,uint,bool){\n        Beneficiary storage s = beneficiaryinfo[_id];\n        return (s.beneficiaryemail,s.portion,s.execute);\n    }\n\n    function getbeneficiarybymail(string memory _mail) public view returns(bool){\n        return mailexist[_mail];\n    }\n    function getportion(string memory _mail) public view returns(uint){\n        return portions[_mail];\n    }\n    \n    //change beneficiary portion\n    function modifybene(uint _id,string memory _mail,uint _portion)public checkSameOwner(msg.sender){\n        Beneficiary storage s = beneficiaryinfo[_id];\n        s.portion = _portion;\n        portions[_mail] = _portion;\n    }\n    /*function submitTransaction(address payable _to,uint _portion) payable public {\n        toadds.push(_to);\n        transferamount[_to] = address(this).balance / 100 * _portion;\n        if (toadds.length == beneficiarymails.length) {\n           for (uint i = 0; i < toadds.length; i++) {\n             toadds[i].transfer(transferamount[toadds[i]]);  \n           }\n        }\n    }*/\n    function submitTransaction(address payable _to,uint _portion) public {\n        toadds.push(_to);\n        //reviseportion.push(_portion);\n        transferamount[_to]=address(this).balance/100*_portion;\n        if(toadds.length==beneficiarymails.length){\n           for(uint i=0;i<toadds.length;i++){\n            //    for(uint r=0;r<reviseportion.length;r++){\n            //  totalpo+=reviseportion[r];\n            //  revisepo=100*_portion/totalpo;\n            //  transferamount[_to]=address(this).balance/100*revisepo;\n                toadds[i].transfer(transferamount[toadds[i]]); \n           }\n        }\n        //_to.transfer(address(this).balance/100*_portion);}\n    }\n    \n    \n    /* not use just for check */\n    \n    function getisOwners(address _checkaddress) public view returns (bool) {\n        return isOwner[_checkaddress];\n    }\n    \n    function getEmail() public view returns (string memory) {\n        return email;\n    }\n    \n    function getPassword() public view returns (string memory) {\n        return password;\n    }\n    \n    function getOwners() public view returns (address[] memory) {\n        return owners;\n    }\n    \n    function returnlen() public view returns (uint) {\n        return beneficiarymails.length;\n    }\n\n    \n    // function submitTransaction(address payable _to) public onlyOwner(_to){\n    //     _to.transfer(address(this).balance);\n    //     activated = true;\n    // }\n}\n\ncontract Backup {\n    MainContract maincontract;\n    constructor (address _oneContractAddr) public {\n        maincontract = MainContract(_oneContractAddr);\n    }\n    \n    function setBackup(string memory _email,string memory _password,string memory _idNo) public {\n        maincontract.setBackup(_email,_password,_idNo,msg.sender);\n        \n    }\n    function activateBackup(string calldata _idNo, string calldata _email,string calldata _password,address payable _to) external {\n        maincontract.checksubmitTransaction(_idNo,_email,_password,_to);\n    }\n\n    function getEmail() public view returns (string memory){\n        return maincontract.getEmail();\n    }\n    function getIdno() public view returns (string memory){\n        return maincontract.getIdno();\n    }\n    \n    \n}\n\ncontract ActivateBackup {\n    Backup backup;\n    constructor (address _oneContractAddr) public {\n        backup = Backup(_oneContractAddr);\n    }\n    // function getbackaddress() public view returns (Backup){\n    //     return backup;\n    // }\n    // function checkContract(address _contractaddress,string memory _email,string memory _password) public {\n    //     Backup a = backup;\n    //     backup = Backup(_contractaddress);\n    //     activateBackup(_email,_password);\n    //     backup = a;\n    // }\n    // constructor (address _oneContractAddr,string memory _email,string memory _password) public {\n    //     backup = Backup(_oneContractAddr);\n    //     email = _email;\n    //     password = _password;\n\n    // }\n    function activateBackup(string memory _idNo, string memory _email,string memory _password) public {\n        backup.activateBackup(_idNo,_email,_password,msg.sender);\n    }\n    \n}\n\ncontract setpassword {\n    MainContract maincontract;\n    bytes32 password;\n    uint portion;\n    mapping (address => bytes32) beneficiarypass;\n    mapping (string => uint) portions;\n    mapping (address => string) mail;\n    bool act;\n\n    constructor (address _oneContractAddr) public {\n        maincontract = MainContract(_oneContractAddr);\n    }\n    \n    function passset(string memory _mail,string memory _password) public {\n        require(maincontract.getbeneficiarybymail(_mail) == true);\n        password = keccak256(abi.encode(_password));\n        beneficiarypass[msg.sender] = password;\n        mail[msg.sender] = _mail;\n        act=false;\n    }\n     \n    function getmail() public view returns (string memory) {\n        return mail[msg.sender];\n    }\n    \n    function getpassword() public view returns (bytes32) {\n        return beneficiarypass[msg.sender];\n    }\n    \n    function getmypo() public view returns (uint) {\n        return maincontract.getportion(mail[msg.sender]);\n    }\n    \n    function execute (string memory _password) public payable{\n        require(keccak256(abi.encode(_password)) == beneficiarypass[msg.sender]);\n        require(act == false);\n        portion = maincontract.getportion(mail[msg.sender]);\n        maincontract.submitTransaction(msg.sender,portion);\n        act=true;\n\n     }\n\n\n}",
  "sourcePath": "/Users/anna/Documents/GitHub/dapp-testamentary/contracts/MainContract.sol",
  "compiler": {
    "name": "solc",
    "version": "0.5.16+commit.9c3226ce.Emscripten.clang"
  },
  "schemaVersion": "3.4.1",
  "updatedAt": "2021-09-03T02:17:45.641Z",
  "devdoc": {
    "methods": {}
  },
  "userdoc": {
    "methods": {}
  }
}