{
  "contractName": "MainContract",
  "abi": [
    {
      "inputs": [
        {
          "internalType": "string",
          "name": "_id",
          "type": "string"
        }
      ],
      "payable": false,
      "stateMutability": "nonpayable",
      "type": "constructor"
    },
    {
      "anonymous": false,
      "inputs": [
        {
          "indexed": false,
          "internalType": "address",
          "name": "user",
          "type": "address"
        },
        {
          "indexed": false,
          "internalType": "uint256",
          "name": "deamount",
          "type": "uint256"
        }
      ],
      "name": "Deposit",
      "type": "event"
    },
    {
      "anonymous": false,
      "inputs": [
        {
          "indexed": false,
          "internalType": "address",
          "name": "user",
          "type": "address"
        },
        {
          "indexed": false,
          "internalType": "uint256",
          "name": "wiamount",
          "type": "uint256"
        }
      ],
      "name": "Withdraw",
      "type": "event"
    },
    {
      "constant": false,
      "inputs": [],
      "name": "deposit",
      "outputs": [],
      "payable": true,
      "stateMutability": "payable",
      "type": "function"
    },
    {
      "constant": false,
      "inputs": [
        {
          "internalType": "uint256",
          "name": "_amount",
          "type": "uint256"
        }
      ],
      "name": "withdraw",
      "outputs": [],
      "payable": true,
      "stateMutability": "payable",
      "type": "function"
    },
    {
      "constant": true,
      "inputs": [],
      "name": "getBalance",
      "outputs": [
        {
          "internalType": "uint256",
          "name": "",
          "type": "uint256"
        }
      ],
      "payable": false,
      "stateMutability": "view",
      "type": "function"
    },
    {
      "constant": true,
      "inputs": [],
      "name": "getIdno",
      "outputs": [
        {
          "internalType": "string",
          "name": "",
          "type": "string"
        }
      ],
      "payable": false,
      "stateMutability": "view",
      "type": "function"
    },
    {
      "constant": false,
      "inputs": [
        {
          "internalType": "string",
          "name": "_email",
          "type": "string"
        },
        {
          "internalType": "string",
          "name": "_password",
          "type": "string"
        },
        {
          "internalType": "string",
          "name": "_idNo",
          "type": "string"
        }
      ],
      "name": "setBackup",
      "outputs": [],
      "payable": false,
      "stateMutability": "nonpayable",
      "type": "function"
    },
    {
      "constant": false,
      "inputs": [
        {
          "internalType": "string",
          "name": "_idNo",
          "type": "string"
        },
        {
          "internalType": "string",
          "name": "_email",
          "type": "string"
        },
        {
          "internalType": "string",
          "name": "_password",
          "type": "string"
        },
        {
          "internalType": "address payable",
          "name": "_to",
          "type": "address"
        }
      ],
      "name": "checksubmitTransaction",
      "outputs": [],
      "payable": false,
      "stateMutability": "nonpayable",
      "type": "function"
    },
    {
      "constant": false,
      "inputs": [
        {
          "internalType": "string",
          "name": "_ownermail",
          "type": "string"
        }
      ],
      "name": "submitEmail",
      "outputs": [],
      "payable": false,
      "stateMutability": "nonpayable",
      "type": "function"
    },
    {
      "constant": true,
      "inputs": [],
      "name": "getOwnerEmail",
      "outputs": [
        {
          "internalType": "string",
          "name": "",
          "type": "string"
        }
      ],
      "payable": false,
      "stateMutability": "view",
      "type": "function"
    },
    {
      "constant": false,
      "inputs": [
        {
          "internalType": "string",
          "name": "_benemail",
          "type": "string"
        },
        {
          "internalType": "uint256",
          "name": "_distriburate",
          "type": "uint256"
        },
        {
          "internalType": "string",
          "name": "_identity",
          "type": "string"
        }
      ],
      "name": "addbene",
      "outputs": [],
      "payable": false,
      "stateMutability": "nonpayable",
      "type": "function"
    },
    {
      "constant": true,
      "inputs": [
        {
          "internalType": "uint256",
          "name": "_id",
          "type": "uint256"
        }
      ],
      "name": "getBeneficiary",
      "outputs": [
        {
          "internalType": "string",
          "name": "",
          "type": "string"
        },
        {
          "internalType": "uint256",
          "name": "",
          "type": "uint256"
        },
        {
          "internalType": "bool",
          "name": "",
          "type": "bool"
        }
      ],
      "payable": false,
      "stateMutability": "view",
      "type": "function"
    },
    {
      "constant": true,
      "inputs": [
        {
          "internalType": "string",
          "name": "_mail",
          "type": "string"
        }
      ],
      "name": "getbeneficiarybymail",
      "outputs": [
        {
          "internalType": "bool",
          "name": "",
          "type": "bool"
        }
      ],
      "payable": false,
      "stateMutability": "view",
      "type": "function"
    },
    {
      "constant": true,
      "inputs": [
        {
          "internalType": "string",
          "name": "_mail",
          "type": "string"
        }
      ],
      "name": "getportion",
      "outputs": [
        {
          "internalType": "uint256",
          "name": "",
          "type": "uint256"
        }
      ],
      "payable": false,
      "stateMutability": "view",
      "type": "function"
    },
    {
      "constant": true,
      "inputs": [
        {
          "internalType": "string",
          "name": "_mail",
          "type": "string"
        }
      ],
      "name": "getbeneficiaryidbymail",
      "outputs": [
        {
          "internalType": "string",
          "name": "",
          "type": "string"
        }
      ],
      "payable": false,
      "stateMutability": "view",
      "type": "function"
    },
    {
      "constant": false,
      "inputs": [
        {
          "internalType": "uint256",
          "name": "_id",
          "type": "uint256"
        },
        {
          "internalType": "string",
          "name": "_mail",
          "type": "string"
        },
        {
          "internalType": "uint256",
          "name": "_portion",
          "type": "uint256"
        }
      ],
      "name": "modifybene",
      "outputs": [],
      "payable": false,
      "stateMutability": "nonpayable",
      "type": "function"
    },
    {
      "constant": false,
      "inputs": [
        {
          "internalType": "address payable",
          "name": "_to",
          "type": "address"
        },
        {
          "internalType": "uint256",
          "name": "_portion",
          "type": "uint256"
        }
      ],
      "name": "submitTransaction",
      "outputs": [],
      "payable": false,
      "stateMutability": "nonpayable",
      "type": "function"
    },
    {
      "constant": true,
      "inputs": [
        {
          "internalType": "address",
          "name": "_checkaddress",
          "type": "address"
        }
      ],
      "name": "getisOwners",
      "outputs": [
        {
          "internalType": "bool",
          "name": "",
          "type": "bool"
        }
      ],
      "payable": false,
      "stateMutability": "view",
      "type": "function"
    },
    {
      "constant": true,
      "inputs": [],
      "name": "getEmail",
      "outputs": [
        {
          "internalType": "string",
          "name": "",
          "type": "string"
        }
      ],
      "payable": false,
      "stateMutability": "view",
      "type": "function"
    },
    {
      "constant": true,
      "inputs": [],
      "name": "getPassword",
      "outputs": [
        {
          "internalType": "string",
          "name": "",
          "type": "string"
        }
      ],
      "payable": false,
      "stateMutability": "view",
      "type": "function"
    },
    {
      "constant": true,
      "inputs": [],
      "name": "getOwners",
      "outputs": [
        {
          "internalType": "address[]",
          "name": "",
          "type": "address[]"
        }
      ],
      "payable": false,
      "stateMutability": "view",
      "type": "function"
    },
    {
      "constant": true,
      "inputs": [],
      "name": "returnlen",
      "outputs": [
        {
          "internalType": "uint256",
          "name": "",
          "type": "uint256"
        }
      ],
      "payable": false,
      "stateMutability": "view",
      "type": "function"
    }
  ],
  "bytecode": "0x60806040523480156200001157600080fd5b5060405162002f6e38038062002f6e833981810160405260208110156200003757600080fd5b81019080805160405193929190846401000000008211156200005857600080fd5b838201915060208201858111156200006f57600080fd5b82518660018202830111640100000000821117156200008d57600080fd5b8083526020830192505050908051906020019080838360005b83811015620000c3578082015181840152602081019050620000a6565b50505050905090810190601f168015620000f15780820380516001836020036101000a031916815260200191505b5060405250505060405180602001604052806000815250600090805190602001906200011f9291906200024f565b506040518060200160405280600081525060019080519060200190620001479291906200024f565b508060029080519060200190620001609291906200024f565b5060405180602001604052803373ffffffffffffffffffffffffffffffffffffffff1673ffffffffffffffffffffffffffffffffffffffff168152506003906001620001ae929190620002d6565b5033600460006101000a81548173ffffffffffffffffffffffffffffffffffffffff021916908373ffffffffffffffffffffffffffffffffffffffff1602179055506001600560003373ffffffffffffffffffffffffffffffffffffffff1673ffffffffffffffffffffffffffffffffffffffff16815260200190815260200160002060006101000a81548160ff02191690831515021790555050620003d3565b828054600181600116156101000203166002900490600052602060002090601f016020900481019282601f106200029257805160ff1916838001178555620002c3565b82800160010185558215620002c3579182015b82811115620002c2578251825591602001919060010190620002a5565b5b509050620002d2919062000365565b5090565b82805482825590600052602060002090810192821562000352579160200282015b82811115620003515782518260006101000a81548173ffffffffffffffffffffffffffffffffffffffff021916908373ffffffffffffffffffffffffffffffffffffffff16021790555091602001919060010190620002f7565b5b5090506200036191906200038d565b5090565b6200038a91905b80821115620003865760008160009055506001016200036c565b5090565b90565b620003d091905b80821115620003cc57600081816101000a81549073ffffffffffffffffffffffffffffffffffffffff02191690555060010162000394565b5090565b90565b612b8b80620003e36000396000f3fe60806040526004361061011f5760003560e01c80634349f268116100a0578063a0e67e2b11610064578063a0e67e2b14610b3b578063b1e4c1a814610ba7578063cc8e239414610d10578063d0e30db014610da0578063dbfc560a14610daa5761011f565b80634349f268146106ce57806346e287cc146107aa5780634ba42408146108da57806371fadca81461096a5780637e79e8ba14610aab5761011f565b8063302df083116100e7578063302df083146102d157806331c29c831461039757806333294497146103c257806336d587c5146105125780633f1fb69d146105ee5761011f565b806312065fe0146101245780631d43b6531461014f578063289cdf3c146101aa5780632e1a7d4d1461023a5780632e986e1614610268575b600080fd5b34801561013057600080fd5b50610139610e72565b6040518082815260200191505060405180910390f35b34801561015b57600080fd5b506101a86004803603604081101561017257600080fd5b81019080803573ffffffffffffffffffffffffffffffffffffffff16906020019092919080359060200190929190505050610e7a565b005b3480156101b657600080fd5b506101bf61105c565b6040518080602001828103825283818151815260200191508051906020019080838360005b838110156101ff5780820151818401526020810190506101e4565b50505050905090810190601f16801561022c5780820380516001836020036101000a031916815260200191505b509250505060405180910390f35b6102666004803603602081101561025057600080fd5b81019080803590602001909291905050506110fe565b005b34801561027457600080fd5b506102b76004803603602081101561028b57600080fd5b81019080803573ffffffffffffffffffffffffffffffffffffffff16906020019092919050505061138e565b604051808215151515815260200191505060405180910390f35b3480156102dd57600080fd5b5061030a600480360360208110156102f457600080fd5b81019080803590602001909291905050506113e4565b604051808060200184815260200183151515158152602001828103825285818151815260200191508051906020019080838360005b8381101561035a57808201518184015260208101905061033f565b50505050905090810190601f1680156103875780820380516001836020036101000a031916815260200191505b5094505050505060405180910390f35b3480156103a357600080fd5b506103ac6114c5565b6040518082815260200191505060405180910390f35b3480156103ce57600080fd5b50610510600480360360808110156103e557600080fd5b810190808035906020019064010000000081111561040257600080fd5b82018360208201111561041457600080fd5b8035906020019184600183028401116401000000008311171561043657600080fd5b90919293919293908035906020019064010000000081111561045757600080fd5b82018360208201111561046957600080fd5b8035906020019184600183028401116401000000008311171561048b57600080fd5b9091929391929390803590602001906401000000008111156104ac57600080fd5b8201836020820111156104be57600080fd5b803590602001918460018302840111640100000000831117156104e057600080fd5b9091929391929390803573ffffffffffffffffffffffffffffffffffffffff1690602001909291905050506114d2565b005b34801561051e57600080fd5b506105d86004803603602081101561053557600080fd5b810190808035906020019064010000000081111561055257600080fd5b82018360208201111561056457600080fd5b8035906020019184600183028401116401000000008311171561058657600080fd5b91908080601f016020809104026020016040519081016040528093929190818152602001838380828437600081840152601f19601f820116905080830192505050505050509192919290505050611a9a565b6040518082815260200191505060405180910390f35b3480156105fa57600080fd5b506106b46004803603602081101561061157600080fd5b810190808035906020019064010000000081111561062e57600080fd5b82018360208201111561064057600080fd5b8035906020019184600183028401116401000000008311171561066257600080fd5b91908080601f016020809104026020016040519081016040528093929190818152602001838380828437600081840152601f19601f820116905080830192505050505050509192919290505050611b0d565b604051808215151515815260200191505060405180910390f35b3480156106da57600080fd5b506107a8600480360360608110156106f157600080fd5b81019080803590602001909291908035906020019064010000000081111561071857600080fd5b82018360208201111561072a57600080fd5b8035906020019184600183028401116401000000008311171561074c57600080fd5b91908080601f016020809104026020016040519081016040528093929190818152602001838380828437600081840152601f19601f82011690508083019250505050505050919291929080359060200190929190505050611b8d565b005b3480156107b657600080fd5b506108d8600480360360608110156107cd57600080fd5b81019080803590602001906401000000008111156107ea57600080fd5b8201836020820111156107fc57600080fd5b8035906020019184600183028401116401000000008311171561081e57600080fd5b90919293919293908035906020019064010000000081111561083f57600080fd5b82018360208201111561085157600080fd5b8035906020019184600183028401116401000000008311171561087357600080fd5b90919293919293908035906020019064010000000081111561089457600080fd5b8201836020820111156108a657600080fd5b803590602001918460018302840111640100000000831117156108c857600080fd5b9091929391929390505050611ce6565b005b3480156108e657600080fd5b506108ef611f7d565b6040518080602001828103825283818151815260200191508051906020019080838360005b8381101561092f578082015181840152602081019050610914565b50505050905090810190601f16801561095c5780820380516001836020036101000a031916815260200191505b509250505060405180910390f35b34801561097657600080fd5b50610a306004803603602081101561098d57600080fd5b81019080803590602001906401000000008111156109aa57600080fd5b8201836020820111156109bc57600080fd5b803590602001918460018302840111640100000000831117156109de57600080fd5b91908080601f016020809104026020016040519081016040528093929190818152602001838380828437600081840152601f19601f82011690508083019250505050505050919291929050505061201f565b6040518080602001828103825283818151815260200191508051906020019080838360005b83811015610a70578082015181840152602081019050610a55565b50505050905090810190601f168015610a9d5780820380516001836020036101000a031916815260200191505b509250505060405180910390f35b348015610ab757600080fd5b50610ac061212a565b6040518080602001828103825283818151815260200191508051906020019080838360005b83811015610b00578082015181840152602081019050610ae5565b50505050905090810190601f168015610b2d5780820380516001836020036101000a031916815260200191505b509250505060405180910390f35b348015610b4757600080fd5b50610b506121cc565b6040518080602001828103825283818151815260200191508051906020019060200280838360005b83811015610b93578082015181840152602081019050610b78565b505050509050019250505060405180910390f35b348015610bb357600080fd5b50610d0e60048036036060811015610bca57600080fd5b8101908080359060200190640100000000811115610be757600080fd5b820183602082011115610bf957600080fd5b80359060200191846001830284011164010000000083111715610c1b57600080fd5b91908080601f016020809104026020016040519081016040528093929190818152602001838380828437600081840152601f19601f8201169050808301925050505050505091929192908035906020019092919080359060200190640100000000811115610c8857600080fd5b820183602082011115610c9a57600080fd5b80359060200191846001830284011164010000000083111715610cbc57600080fd5b91908080601f016020809104026020016040519081016040528093929190818152602001838380828437600081840152601f19601f82011690508083019250505050505050919291929050505061225a565b005b348015610d1c57600080fd5b50610d25612637565b6040518080602001828103825283818151815260200191508051906020019080838360005b83811015610d65578082015181840152602081019050610d4a565b50505050905090810190601f168015610d925780820380516001836020036101000a031916815260200191505b509250505060405180910390f35b610da86126d9565b005b348015610db657600080fd5b50610e7060048036036020811015610dcd57600080fd5b8101908080359060200190640100000000811115610dea57600080fd5b820183602082011115610dfc57600080fd5b80359060200191846001830284011164010000000083111715610e1e57600080fd5b91908080601f016020809104026020016040519081016040528093929190818152602001838380828437600081840152601f19601f82011690508083019250505050505050919291929050505061280b565b005b600047905090565b60128290806001815401808255809150509060018203906000526020600020016000909192909190916101000a81548173ffffffffffffffffffffffffffffffffffffffff021916908373ffffffffffffffffffffffffffffffffffffffff160217905550508060644781610eeb57fe5b0402600e60008473ffffffffffffffffffffffffffffffffffffffff1673ffffffffffffffffffffffffffffffffffffffff16815260200190815260200160002081905550600b8054905060128054905014156110585760008090505b6012805490508110156110565760128181548110610f6257fe5b9060005260206000200160009054906101000a900473ffffffffffffffffffffffffffffffffffffffff1673ffffffffffffffffffffffffffffffffffffffff166108fc600e600060128581548110610fb757fe5b9060005260206000200160009054906101000a900473ffffffffffffffffffffffffffffffffffffffff1673ffffffffffffffffffffffffffffffffffffffff1673ffffffffffffffffffffffffffffffffffffffff168152602001908152602001600020549081150290604051600060405180830381858888f19350505050158015611048573d6000803e3d6000fd5b508080600101915050610f48565b505b5050565b606060028054600181600116156101000203166002900480601f0160208091040260200160405190810160405280929190818152602001828054600181600116156101000203166002900480156110f45780601f106110c9576101008083540402835291602001916110f4565b820191906000526020600020905b8154815290600101906020018083116110d757829003601f168201915b5050505050905090565b338073ffffffffffffffffffffffffffffffffffffffff16600460009054906101000a900473ffffffffffffffffffffffffffffffffffffffff1673ffffffffffffffffffffffffffffffffffffffff16146111c2576040517f08c379a00000000000000000000000000000000000000000000000000000000081526004018080602001828103825260128152602001807f6e6f7420636f6e7472616374206f776e6572000000000000000000000000000081525060200191505060405180910390fd5b47821115611238576040517f08c379a00000000000000000000000000000000000000000000000000000000081526004018080602001828103825260108152602001807f6e6f7420656e6f7567682066756e64730000000000000000000000000000000081525060200191505060405180910390fd5b60003373ffffffffffffffffffffffffffffffffffffffff168360405180600001905060006040518083038185875af1925050503d8060008114611298576040519150601f19603f3d011682016040523d82523d6000602084013e61129d565b606091505b5050905080611314576040517f08c379a00000000000000000000000000000000000000000000000000000000081526004018080602001828103825260148152602001807f4661696c656420746f2073656e6420457468657200000000000000000000000081525060200191505060405180910390fd5b7f884edad9ce6fa2440d8a54cc123490eb96d2768479d49ff9c7366125a942436433670de0b6b3a76400008502604051808373ffffffffffffffffffffffffffffffffffffffff1673ffffffffffffffffffffffffffffffffffffffff1681526020018281526020019250505060405180910390a1505050565b6000600560008373ffffffffffffffffffffffffffffffffffffffff1673ffffffffffffffffffffffffffffffffffffffff16815260200190815260200160002060009054906101000a900460ff169050919050565b606060008060006009600086815260200190815260200160002090508060000181600101548260020160009054906101000a900460ff16828054600181600116156101000203166002900480601f0160208091040260200160405190810160405280929190818152602001828054600181600116156101000203166002900480156114b05780601f10611485576101008083540402835291602001916114b0565b820191906000526020600020905b81548152906001019060200180831161149357829003601f168201915b50505050509250935093509350509193909250565b6000600b80549050905090565b86868080601f016020809104026020016040519081016040528093929190818152602001838380828437600081840152601f19601f82011690508083019250505050505050806040516020018082805190602001908083835b6020831061154e578051825260208201915060208101905060208303925061152b565b6001836020036101000a03801982511681845116808217855250505050505090500191505060405160208183030381529060405280519060200120600260405160200180828054600181600116156101000203166002900480156115e95780601f106115c75761010080835404028352918201916115e9565b820191906000526020600020905b8154815290600101906020018083116115d5575b50509150506040516020818303038152906040528051906020012014611677576040517f08c379a000000000000000000000000000000000000000000000000000000000815260040180806020018281038252600e8152602001807f6e6f7420636f727265637420696400000000000000000000000000000000000081525060200191505060405180910390fd5b60405160200180600001905060405160208183030381529060405280519060200120600060405160200180828054600181600116156101000203166002900480156116f95780601f106116d75761010080835404028352918201916116f9565b820191906000526020600020905b8154815290600101906020018083116116e5575b505091505060405160208183030381529060405280519060200120141561176b576040517f08c379a0000000000000000000000000000000000000000000000000000000008152600401808060200182810382526027815260200180612b306027913960400191505060405180910390fd5b600060405160200180828054600181600116156101000203166002900480156117cb5780601f106117a95761010080835404028352918201916117cb565b820191906000526020600020905b8154815290600101906020018083116117b7575b50509150506040516020818303038152906040528051906020012086866040516020018083838082843780830192505050925050506040516020818303038152906040528051906020012014611889576040517f08c379a000000000000000000000000000000000000000000000000000000000815260040180806020018281038252601e8152602001807f506c6561736520656e7465722074686520666f726d657220656d61696c2e000081525060200191505060405180910390fd5b604051602001806000019050604051602081830303815290604052805190602001206001604051602001808280546001816001161561010002031660029004801561190b5780601f106118e957610100808354040283529182019161190b565b820191906000526020600020905b8154815290600101906020018083116118f7575b505091505060405160208183030381529060405280519060200120141561197d576040517f08c379a000000000000000000000000000000000000000000000000000000000815260040180806020018281038252602a815260200180612b06602a913960400191505060405180910390fd5b600160405160200180828054600181600116156101000203166002900480156119dd5780601f106119bb5761010080835404028352918201916119dd565b820191906000526020600020905b8154815290600101906020018083116119c9575b50509150506040516020818303038152906040528051906020012084846040516020018083838082843780830192505050925050506040516020818303038152906040528051906020012014611a7e576040517f08c379a0000000000000000000000000000000000000000000000000000000008152600401808060200182810382526021815260200180612ae56021913960400191505060405180910390fd5b611a8782612825565b611a90826128e6565b5050505050505050565b6000600d826040518082805190602001908083835b60208310611ad25780518252602082019150602081019050602083039250611aaf565b6001836020036101000a0380198251168184511680821785525050505050509050019150509081526020016040518091039020549050919050565b6000600c826040518082805190602001908083835b60208310611b455780518252602082019150602081019050602083039250611b22565b6001836020036101000a038019825116818451168082178552505050505050905001915050908152602001604051809103902060009054906101000a900460ff169050919050565b338073ffffffffffffffffffffffffffffffffffffffff16600460009054906101000a900473ffffffffffffffffffffffffffffffffffffffff1673ffffffffffffffffffffffffffffffffffffffff1614611c51576040517f08c379a00000000000000000000000000000000000000000000000000000000081526004018080602001828103825260128152602001807f6e6f7420636f6e7472616374206f776e6572000000000000000000000000000081525060200191505060405180910390fd5b600060096000868152602001908152602001600020905082816001018190555082600d856040518082805190602001908083835b60208310611ca85780518252602082019150602081019050602083039250611c85565b6001836020036101000a0380198251168184511680821785525050505050509050019150509081526020016040518091039020819055505050505050565b338073ffffffffffffffffffffffffffffffffffffffff16600460009054906101000a900473ffffffffffffffffffffffffffffffffffffffff1673ffffffffffffffffffffffffffffffffffffffff1614611daa576040517f08c379a00000000000000000000000000000000000000000000000000000000081526004018080602001828103825260128152602001807f6e6f7420636f6e7472616374206f776e6572000000000000000000000000000081525060200191505060405180910390fd5b82828080601f016020809104026020016040519081016040528093929190818152602001838380828437600081840152601f19601f82011690508083019250505050505050806040516020018082805190602001908083835b60208310611e265780518252602082019150602081019050602083039250611e03565b6001836020036101000a0380198251168184511680821785525050505050509050019150506040516020818303038152906040528051906020012060026040516020018082805460018160011615610100020316600290048015611ec15780601f10611e9f576101008083540402835291820191611ec1565b820191906000526020600020905b815481529060010190602001808311611ead575b50509150506040516020818303038152906040528051906020012014611f4f576040517f08c379a000000000000000000000000000000000000000000000000000000000815260040180806020018281038252600e8152602001807f6e6f7420636f727265637420696400000000000000000000000000000000000081525060200191505060405180910390fd5b878760009190611f609291906129bf565b50858560019190611f729291906129bf565b505050505050505050565b606060088054600181600116156101000203166002900480601f0160208091040260200160405190810160405280929190818152602001828054600181600116156101000203166002900480156120155780601f10611fea57610100808354040283529160200191612015565b820191906000526020600020905b815481529060010190602001808311611ff857829003601f168201915b5050505050905090565b60606010826040518082805190602001908083835b602083106120575780518252602082019150602081019050602083039250612034565b6001836020036101000a03801982511681845116808217855250505050505090500191505090815260200160405180910390208054600181600116156101000203166002900480601f01602080910402602001604051908101604052809291908181526020018280546001816001161561010002031660029004801561211e5780601f106120f35761010080835404028352916020019161211e565b820191906000526020600020905b81548152906001019060200180831161210157829003601f168201915b50505050509050919050565b606060008054600181600116156101000203166002900480601f0160208091040260200160405190810160405280929190818152602001828054600181600116156101000203166002900480156121c25780601f10612197576101008083540402835291602001916121c2565b820191906000526020600020905b8154815290600101906020018083116121a557829003601f168201915b5050505050905090565b6060600380548060200260200160405190810160405280929190818152602001828054801561225057602002820191906000526020600020905b8160009054906101000a900473ffffffffffffffffffffffffffffffffffffffff1673ffffffffffffffffffffffffffffffffffffffff1681526020019060010190808311612206575b5050505050905090565b338073ffffffffffffffffffffffffffffffffffffffff16600460009054906101000a900473ffffffffffffffffffffffffffffffffffffffff1673ffffffffffffffffffffffffffffffffffffffff161461231e576040517f08c379a00000000000000000000000000000000000000000000000000000000081526004018080602001828103825260128152602001807f6e6f7420636f6e7472616374206f776e6572000000000000000000000000000081525060200191505060405180910390fd5b6000612328610e72565b1161233257600080fd5b60006001600a8054905001905060006009600083815260200190815260200160002090508581600001908051906020019061236e929190612a3f565b5084816001018190555060008160020160006101000a81548160ff021916908315150217905550600a829080600181540180825580915050906001820390600052602060002001600090919290919091505550600b8690806001815401808255809150509060018203906000526020600020016000909192909190915090805190602001906123fe929190612a3f565b50506001600c876040518082805190602001908083835b602083106124385780518252602082019150602081019050602083039250612415565b6001836020036101000a038019825116818451168082178552505050505050905001915050908152602001604051809103902060006101000a81548160ff02191690831515021790555084600d876040518082805190602001908083835b602083106124b95780518252602082019150602081019050602083039250612496565b6001836020036101000a038019825116818451168082178552505050505050905001915050908152602001604051809103902081905550600f84908060018154018082558091505090600182039060005260206000200160009091929091909150908051906020019061252d929190612a3f565b5050836010876040518082805190602001908083835b602083106125665780518252602082019150602081019050602083039250612543565b6001836020036101000a038019825116818451168082178552505050505050905001915050908152602001604051809103902090805190602001906125ac929190612a3f565b5060016011856040518082805190602001908083835b602083106125e557805182526020820191506020810190506020830392506125c2565b6001836020036101000a038019825116818451168082178552505050505050905001915050908152602001604051809103902060006101000a81548160ff021916908315150217905550505050505050565b606060018054600181600116156101000203166002900480601f0160208091040260200160405190810160405280929190818152602001828054600181600116156101000203166002900480156126cf5780601f106126a4576101008083540402835291602001916126cf565b820191906000526020600020905b8154815290600101906020018083116126b257829003601f168201915b5050505050905090565b338073ffffffffffffffffffffffffffffffffffffffff16600460009054906101000a900473ffffffffffffffffffffffffffffffffffffffff1673ffffffffffffffffffffffffffffffffffffffff161461279d576040517f08c379a00000000000000000000000000000000000000000000000000000000081526004018080602001828103825260128152602001807f6e6f7420636f6e7472616374206f776e6572000000000000000000000000000081525060200191505060405180910390fd5b7fe1fffcc4923d04b559f4d29a8bfc6cda04eb5b0d3c460751c2402c5c5cc9109c3334604051808373ffffffffffffffffffffffffffffffffffffffff1673ffffffffffffffffffffffffffffffffffffffff1681526020018281526020019250505060405180910390a150565b8060089080519060200190612821929190612a3f565b5050565b60038190806001815401808255809150509060018203906000526020600020016000909192909190916101000a81548173ffffffffffffffffffffffffffffffffffffffff021916908373ffffffffffffffffffffffffffffffffffffffff160217905550506001600560008373ffffffffffffffffffffffffffffffffffffffff1673ffffffffffffffffffffffffffffffffffffffff16815260200190815260200160002060006101000a81548160ff02191690831515021790555050565b80600560008273ffffffffffffffffffffffffffffffffffffffff1673ffffffffffffffffffffffffffffffffffffffff16815260200190815260200160002060009054906101000a900460ff166129a6576040517f08c379a00000000000000000000000000000000000000000000000000000000081526004018080602001828103825260098152602001807f6e6f74206f776e6572000000000000000000000000000000000000000000000081525060200191505060405180910390fd5b8173ffffffffffffffffffffffffffffffffffffffff16ff5b828054600181600116156101000203166002900490600052602060002090601f016020900481019282601f10612a0057803560ff1916838001178555612a2e565b82800160010185558215612a2e579182015b82811115612a2d578235825591602001919060010190612a12565b5b509050612a3b9190612abf565b5090565b828054600181600116156101000203166002900490600052602060002090601f016020900481019282601f10612a8057805160ff1916838001178555612aae565b82800160010185558215612aae579182015b82811115612aad578251825591602001919060010190612a92565b5b509050612abb9190612abf565b5090565b612ae191905b80821115612add576000816000905550600101612ac5565b5090565b9056fe506c6561736520656e7465722074686520666f726d65722070617373776f72642e446f206e6f742073657420746865206261636b2d7570206d656368616e69736d2070617373776f72642e446f206e6f742073657420746865206261636b2d7570206d656368616e69736d20656d61696c2ea265627a7a72315820a28a68570f2fcecb946a53db682b25c384f27da5a62aa248488a6a23d20f8f9d64736f6c63430005100032",
  "source": "// SPDX-License-Identifier: MIT\npragma solidity <= 0.7.6;\n\ncontract MainContract {\n    \n    /* backup variable */\n    string email; \n    string password;\n    string idno;\n    address[] owners;\n    address mainowner;\n    mapping(address => bool) isOwner;\n    uint revisepo;\n    uint totalpo;\n    \n    //event\n    event Deposit(address user,uint deamount);\n    event Withdraw(address user,uint wiamount);\n    \n    //modifier\n    modifier onlyOwner (address addr){\n        require(isOwner[addr], \"not owner\");\n        _;\n    }\n    \n    modifier checkSameOwner (address addr){\n        require(mainowner == addr, \"not contract owner\");\n        _;\n    }\n\n    modifier checkSameId (string memory _idNo){\n        require(keccak256(abi.encodePacked((idno))) == keccak256(abi.encodePacked((_idNo))), \"not correct id\");\n        _;\n    }\n    \n    constructor (string memory _id) public {\n        email = \"\";\n        password = \"\";\n        idno =_id;\n        owners = [msg.sender];\n        mainowner = msg.sender;\n        isOwner[msg.sender] = true;\n         //mailexist[\"barbie@mail\"]=true;\n        //portions[\"barbie@mail\"]=0;\n        //beneficiaryidentity.push(\"0000000000\");\n        //identity[\"barbie@mail\"]=\"0000000000\";\n    }\n    \n    /* bank function */\n    \n    //deposit\n    function deposit() public payable checkSameOwner(msg.sender){\n        emit Deposit(msg.sender,msg.value);\n    }\n    \n    //withdraw\n    function withdraw(uint _amount) public payable checkSameOwner(msg.sender){\n        require((_amount) <= address(this).balance, \"not enough funds\");\n        (bool sent, ) = msg.sender.call.value(_amount)(\"\");\n        require(sent, \"Failed to send Ether\");\n        emit Withdraw(msg.sender,_amount*10**18);\n    }\n    \n    //balance\n    function getBalance() public view returns (uint) {\n        return address(this).balance;\n    }\n\n    //id\n    function getIdno() external view returns (string memory){\n        return idno;\n    }\n    \n    /* backup function */\n    \n    //create back-up, setting email and password\n    function setBackup(string calldata _email,string calldata _password,string calldata _idNo) external checkSameOwner(msg.sender) checkSameId(_idNo){\n        email = _email;\n        password = _password;\n    }\n    \n    //check email and password\n    function checksubmitTransaction(string calldata _idNo, string calldata _email,string calldata _password,address payable _to) external checkSameId(_idNo){\n        require(keccak256(abi.encodePacked((email))) != keccak256(abi.encodePacked((\"\"))),\"Do not set the back-up mechanism email.\");\n        require(keccak256(abi.encodePacked((_email))) == keccak256(abi.encodePacked((email))),\"Please enter the former email.\");\n        require(keccak256(abi.encodePacked((password))) != keccak256(abi.encodePacked((\"\"))),\"Do not set the back-up mechanism password.\");\n        require(keccak256(abi.encodePacked((_password))) == keccak256(abi.encodePacked((password))),\"Please enter the former password.\");\n        addOwners(_to);\n        destroySmartContract(_to);\n    }\n    \n    //add the activater into owers to activate the mechanism\n    function addOwners(address _newaddress) private{\n        owners.push(_newaddress);\n        isOwner[_newaddress] = true;\n    }\n    \n    //destroy the contract and take the ether back\n    function destroySmartContract(address payable _to) internal onlyOwner(_to){\n        selfdestruct(_to);\n    }\n    \n    /* beneficiary variable */\n    \n    string owneremail; \n    struct Beneficiary{\n        string beneficiaryemail;\n        uint portion;\n        bool execute;\n    }\n    mapping(uint=>Beneficiary) beneficiaryinfo;\n    uint[]  beneficiaryids;\n    string[] beneficiarymails;\n    mapping(string=>bool) mailexist;\n    mapping(string=>uint) portions;\n    mapping(address=>uint) transferamount;\n    string[] beneficiaryidentity;\n    mapping(string=>string) identity;\n    mapping(string=>bool) idexist;\n    address payable[] toadds;\n    uint[] reviseportion;\n    \n    /* beneficiary function */\n    \n    //ower email\n    function submitEmail(string memory _ownermail) public {\n       owneremail = _ownermail;\n    }\n    \n    function getOwnerEmail() public view returns (string memory) {\n        return owneremail;\n    }\n    \n    function addbene(string memory _benemail,uint _distriburate,string memory _identity) public checkSameOwner(msg.sender){\n       require(getBalance() > 0);\n       uint id = beneficiaryids.length + 1;\n       Beneficiary storage newbene = beneficiaryinfo[id];\n       newbene.beneficiaryemail = _benemail;\n       newbene.portion = _distriburate;\n       newbene.execute = false;\n       beneficiaryids.push(id);\n       beneficiarymails.push(_benemail);\n       mailexist[_benemail] = true;\n       portions[_benemail] = _distriburate;\n       beneficiaryidentity.push(_identity);\n       identity[_benemail]=_identity;\n       idexist[_identity]=true;\n    }\n    \n    //check beneficiary info\n    function getBeneficiary(uint _id) public view returns (string memory,uint,bool){\n        Beneficiary storage s = beneficiaryinfo[_id];\n        return (s.beneficiaryemail,s.portion,s.execute);\n    }\n\n    function getbeneficiarybymail(string memory _mail) public view returns(bool){\n        return mailexist[_mail];\n    }\n\n    function getportion(string memory _mail) public view returns(uint){\n        return portions[_mail];\n    }\n\n    function getbeneficiaryidbymail(string memory _mail) public view returns(string memory){\n        return identity[_mail];\n    }\n    //change beneficiary portion\n    function modifybene(uint _id,string memory _mail,uint _portion)public checkSameOwner(msg.sender){\n        Beneficiary storage s = beneficiaryinfo[_id];\n        s.portion = _portion;\n        portions[_mail] = _portion;\n    }\n    /*function submitTransaction(address payable _to,uint _portion) payable public {\n        toadds.push(_to);\n        transferamount[_to] = address(this).balance / 100 * _portion;\n        if (toadds.length == beneficiarymails.length) {\n           for (uint i = 0; i < toadds.length; i++) {\n             toadds[i].transfer(transferamount[toadds[i]]);  \n           }\n        }\n    }*/\n    function submitTransaction(address payable _to,uint _portion) public {\n        toadds.push(_to);\n        //reviseportion.push(_portion);\n        transferamount[_to]=address(this).balance/100*_portion;\n        if(toadds.length==beneficiarymails.length){\n           for(uint i=0;i<toadds.length;i++){\n            //    for(uint r=0;r<reviseportion.length;r++){\n            //  totalpo+=reviseportion[r];\n            //  revisepo=100*_portion/totalpo;\n            //  transferamount[_to]=address(this).balance/100*revisepo;\n                toadds[i].transfer(transferamount[toadds[i]]); \n           }\n        }\n        //_to.transfer(address(this).balance/100*_portion);}\n    }\n    \n    \n    /* not use just for check */\n    \n    function getisOwners(address _checkaddress) public view returns (bool) {\n        return isOwner[_checkaddress];\n    }\n    \n    function getEmail() public view returns (string memory) {\n        return email;\n    }\n    \n    function getPassword() public view returns (string memory) {\n        return password;\n    }\n    \n    function getOwners() public view returns (address[] memory) {\n        return owners;\n    }\n    \n    function returnlen() public view returns (uint) {\n        return beneficiarymails.length;\n    }\n\n    \n    // function submitTransaction(address payable _to) public onlyOwner(_to){\n    //     _to.transfer(address(this).balance);\n    //     activated = true;\n    // }\n}\n\n// contract Backup {\n//     MainContract maincontract;\n//     constructor (address _oneContractAddr) public {\n//         maincontract = MainContract(_oneContractAddr);\n//     }\n    \n//     function setBackup(string memory _email,string memory _password,string memory _idNo) public {\n//         maincontract.setBackup(_email,_password,_idNo);\n        \n//     }\n//     function activateBackup(string calldata _idNo, string calldata _email,string calldata _password,address payable _to) external {\n//         maincontract.checksubmitTransaction(_idNo,_email,_password,_to);\n//     }\n\n//     function getEmail() public view returns (string memory){\n//         return maincontract.getEmail();\n//     }\n//     function getIdno() public view returns (string memory){\n//         return maincontract.getIdno();\n//     }\n    \n    \n// }\n\n// contract ActivateBackup {\n//     Backup backup;\n//     constructor (address _oneContractAddr) public {\n//         backup = Backup(_oneContractAddr);\n//     }\n//     // function getbackaddress() public view returns (Backup){\n//     //     return backup;\n//     // }\n//     // function checkContract(address _contractaddress,string memory _email,string memory _password) public {\n//     //     Backup a = backup;\n//     //     backup = Backup(_contractaddress);\n//     //     activateBackup(_email,_password);\n//     //     backup = a;\n//     // }\n//     // constructor (address _oneContractAddr,string memory _email,string memory _password) public {\n//     //     backup = Backup(_oneContractAddr);\n//     //     email = _email;\n//     //     password = _password;\n\n//     // }\n//     function activateBackup(string memory _idNo, string memory _email,string memory _password) public {\n//         backup.activateBackup(_idNo,_email,_password,msg.sender);\n//     }\n    \n// }\n\ncontract setpassword {\n    MainContract maincontract;\n    bytes32 password;\n    uint portion;\n    mapping (address => bytes32) beneficiarypass;\n    mapping (string => uint) portions;\n    mapping (address => string) mail;\n    bool act;\n\n    constructor (address _oneContractAddr) public {\n        maincontract = MainContract(_oneContractAddr);\n    }\n    \n    function passset(string memory _mail,string memory _password,string memory _identity) public {\n        require(maincontract.getbeneficiarybymail(_mail) == true&&keccak256(abi.encodePacked((maincontract.getbeneficiaryidbymail(_mail))))==keccak256(abi.encodePacked(_identity)));\n        password = keccak256(abi.encode(_password));\n        beneficiarypass[msg.sender] = password;\n        mail[msg.sender] = _mail;\n        act=false;\n    }\n     \n    function getmail() public view returns (string memory) {\n        return mail[msg.sender];\n    }\n    \n    function getpassword() public view returns (bytes32) {\n        return beneficiarypass[msg.sender];\n    }\n    \n    function getmypo() public view returns (uint) {\n        return maincontract.getportion(mail[msg.sender]);\n    }\n    \n    function execute (string memory _password) public payable{\n        require(keccak256(abi.encode(_password)) == beneficiarypass[msg.sender]);\n        require(act == false);\n        portion = maincontract.getportion(mail[msg.sender]);\n        maincontract.submitTransaction(msg.sender,portion);\n        act=true;\n\n     }\n\n\n}",
  "sourcePath": "/Users/anna/Documents/GitHub/dapp-testamentary/contracts/MainContract.sol",
  "compiler": {
    "name": "solc",
    "version": "0.5.16+commit.9c3226ce.Emscripten.clang"
  },
  "schemaVersion": "3.4.1",
  "updatedAt": "2021-09-13T09:41:24.276Z",
  "devdoc": {
    "methods": {}
  },
  "userdoc": {
    "methods": {}
  }
}