{
  "contractName": "MainContract",
  "abi": [
    {
      "inputs": [],
      "payable": false,
      "stateMutability": "nonpayable",
      "type": "constructor"
    },
    {
      "anonymous": false,
      "inputs": [
        {
          "indexed": false,
          "internalType": "address",
          "name": "user",
          "type": "address"
        },
        {
          "indexed": false,
          "internalType": "uint256",
          "name": "deamount",
          "type": "uint256"
        }
      ],
      "name": "Deposit",
      "type": "event"
    },
    {
      "anonymous": false,
      "inputs": [
        {
          "indexed": false,
          "internalType": "address",
          "name": "user",
          "type": "address"
        },
        {
          "indexed": false,
          "internalType": "uint256",
          "name": "wiamount",
          "type": "uint256"
        }
      ],
      "name": "Withdraw",
      "type": "event"
    },
    {
      "constant": false,
      "inputs": [],
      "name": "deposit",
      "outputs": [],
      "payable": true,
      "stateMutability": "payable",
      "type": "function"
    },
    {
      "constant": false,
      "inputs": [
        {
          "internalType": "uint256",
          "name": "_amount",
          "type": "uint256"
        }
      ],
      "name": "withdraw",
      "outputs": [],
      "payable": true,
      "stateMutability": "payable",
      "type": "function"
    },
    {
      "constant": true,
      "inputs": [],
      "name": "getBalance",
      "outputs": [
        {
          "internalType": "uint256",
          "name": "",
          "type": "uint256"
        }
      ],
      "payable": false,
      "stateMutability": "view",
      "type": "function"
    },
    {
      "constant": false,
      "inputs": [
        {
          "internalType": "string",
          "name": "_email",
          "type": "string"
        },
        {
          "internalType": "string",
          "name": "_password",
          "type": "string"
        },
        {
          "internalType": "address",
          "name": "_call",
          "type": "address"
        }
      ],
      "name": "setBackup",
      "outputs": [],
      "payable": false,
      "stateMutability": "nonpayable",
      "type": "function"
    },
    {
      "constant": false,
      "inputs": [
        {
          "internalType": "string",
          "name": "_email",
          "type": "string"
        },
        {
          "internalType": "string",
          "name": "_password",
          "type": "string"
        },
        {
          "internalType": "address payable",
          "name": "_to",
          "type": "address"
        }
      ],
      "name": "checksubmitTransaction",
      "outputs": [],
      "payable": false,
      "stateMutability": "nonpayable",
      "type": "function"
    },
    {
      "constant": false,
      "inputs": [
        {
          "internalType": "string",
          "name": "_ownermail",
          "type": "string"
        }
      ],
      "name": "submitEmail",
      "outputs": [],
      "payable": false,
      "stateMutability": "nonpayable",
      "type": "function"
    },
    {
      "constant": true,
      "inputs": [],
      "name": "getOwnerEmail",
      "outputs": [
        {
          "internalType": "string",
          "name": "",
          "type": "string"
        }
      ],
      "payable": false,
      "stateMutability": "view",
      "type": "function"
    },
    {
      "constant": false,
      "inputs": [],
      "name": "create",
      "outputs": [],
      "payable": false,
      "stateMutability": "nonpayable",
      "type": "function"
    },
    {
      "constant": false,
      "inputs": [
        {
          "internalType": "string",
          "name": "_benemail",
          "type": "string"
        },
        {
          "internalType": "uint256",
          "name": "_distriburate",
          "type": "uint256"
        }
      ],
      "name": "addbene",
      "outputs": [],
      "payable": false,
      "stateMutability": "nonpayable",
      "type": "function"
    },
    {
      "constant": true,
      "inputs": [
        {
          "internalType": "uint256",
          "name": "_id",
          "type": "uint256"
        }
      ],
      "name": "getBeneficiary",
      "outputs": [
        {
          "internalType": "string",
          "name": "",
          "type": "string"
        },
        {
          "internalType": "uint256",
          "name": "",
          "type": "uint256"
        },
        {
          "internalType": "bool",
          "name": "",
          "type": "bool"
        }
      ],
      "payable": false,
      "stateMutability": "view",
      "type": "function"
    },
    {
      "constant": true,
      "inputs": [
        {
          "internalType": "string",
          "name": "_mail",
          "type": "string"
        }
      ],
      "name": "getbeneficiarybymail",
      "outputs": [
        {
          "internalType": "bool",
          "name": "",
          "type": "bool"
        }
      ],
      "payable": false,
      "stateMutability": "view",
      "type": "function"
    },
    {
      "constant": true,
      "inputs": [
        {
          "internalType": "string",
          "name": "_mail",
          "type": "string"
        }
      ],
      "name": "getportion",
      "outputs": [
        {
          "internalType": "uint256",
          "name": "",
          "type": "uint256"
        }
      ],
      "payable": false,
      "stateMutability": "view",
      "type": "function"
    },
    {
      "constant": false,
      "inputs": [
        {
          "internalType": "uint256",
          "name": "_id",
          "type": "uint256"
        },
        {
          "internalType": "string",
          "name": "_mail",
          "type": "string"
        },
        {
          "internalType": "uint256",
          "name": "_portion",
          "type": "uint256"
        }
      ],
      "name": "modifybene",
      "outputs": [],
      "payable": false,
      "stateMutability": "nonpayable",
      "type": "function"
    },
    {
      "constant": false,
      "inputs": [
        {
          "internalType": "address payable",
          "name": "_to",
          "type": "address"
        },
        {
          "internalType": "uint256",
          "name": "_portion",
          "type": "uint256"
        }
      ],
      "name": "submitTransaction",
      "outputs": [],
      "payable": true,
      "stateMutability": "payable",
      "type": "function"
    },
    {
      "constant": true,
      "inputs": [
        {
          "internalType": "address",
          "name": "_checkaddress",
          "type": "address"
        }
      ],
      "name": "getisOwners",
      "outputs": [
        {
          "internalType": "bool",
          "name": "",
          "type": "bool"
        }
      ],
      "payable": false,
      "stateMutability": "view",
      "type": "function"
    },
    {
      "constant": true,
      "inputs": [],
      "name": "getEmail",
      "outputs": [
        {
          "internalType": "string",
          "name": "",
          "type": "string"
        }
      ],
      "payable": false,
      "stateMutability": "view",
      "type": "function"
    },
    {
      "constant": true,
      "inputs": [],
      "name": "getPassword",
      "outputs": [
        {
          "internalType": "string",
          "name": "",
          "type": "string"
        }
      ],
      "payable": false,
      "stateMutability": "view",
      "type": "function"
    },
    {
      "constant": true,
      "inputs": [],
      "name": "getOwners",
      "outputs": [
        {
          "internalType": "address[]",
          "name": "",
          "type": "address[]"
        }
      ],
      "payable": false,
      "stateMutability": "view",
      "type": "function"
    },
    {
      "constant": true,
      "inputs": [],
      "name": "returnlen",
      "outputs": [
        {
          "internalType": "uint256",
          "name": "",
          "type": "uint256"
        }
      ],
      "payable": false,
      "stateMutability": "view",
      "type": "function"
    }
  ],
  "bytecode": "0x60806040523480156200001157600080fd5b506040518060200160405280600081525060009080519060200190620000399291906200014f565b506040518060200160405280600081525060019080519060200190620000619291906200014f565b5060405180602001604052803373ffffffffffffffffffffffffffffffffffffffff1673ffffffffffffffffffffffffffffffffffffffff168152506002906001620000af929190620001d6565b5033600360006101000a81548173ffffffffffffffffffffffffffffffffffffffff021916908373ffffffffffffffffffffffffffffffffffffffff1602179055506001600460003373ffffffffffffffffffffffffffffffffffffffff1673ffffffffffffffffffffffffffffffffffffffff16815260200190815260200160002060006101000a81548160ff021916908315150217905550620002d3565b828054600181600116156101000203166002900490600052602060002090601f016020900481019282601f106200019257805160ff1916838001178555620001c3565b82800160010185558215620001c3579182015b82811115620001c2578251825591602001919060010190620001a5565b5b509050620001d2919062000265565b5090565b82805482825590600052602060002090810192821562000252579160200282015b82811115620002515782518260006101000a81548173ffffffffffffffffffffffffffffffffffffffff021916908373ffffffffffffffffffffffffffffffffffffffff16021790555091602001919060010190620001f7565b5b5090506200026191906200028d565b5090565b6200028a91905b80821115620002865760008160009055506001016200026c565b5090565b90565b620002d091905b80821115620002cc57600081816101000a81549073ffffffffffffffffffffffffffffffffffffffff02191690555060010162000294565b5090565b90565b6122b280620002e36000396000f3fe6080604052600436106101145760003560e01c80634349f268116100a0578063be08339211610064578063be0833921461090b578063cc8e239414610a06578063d0e30db014610a96578063dbfc560a14610aa0578063efc81a8c14610b6857610114565b80634349f268146105d15780634ba42408146106ad5780637e79e8ba1461073d578063a0e67e2b146107cd578063b8d3d0401461083957610114565b80632e986e16116100e75780632e986e16146102bb578063302df0831461032457806331c29c83146103ea57806336d587c5146104155780633f1fb69d146104f157610114565b806312065fe0146101195780631d43b653146101445780632d12ba48146101925780632e1a7d4d1461028d575b600080fd5b34801561012557600080fd5b5061012e610b7f565b6040518082815260200191505060405180910390f35b6101906004803603604081101561015a57600080fd5b81019080803573ffffffffffffffffffffffffffffffffffffffff16906020019092919080359060200190929190505050610b87565b005b34801561019e57600080fd5b5061028b600480360360608110156101b557600080fd5b81019080803590602001906401000000008111156101d257600080fd5b8201836020820111156101e457600080fd5b8035906020019184600183028401116401000000008311171561020657600080fd5b90919293919293908035906020019064010000000081111561022757600080fd5b82018360208201111561023957600080fd5b8035906020019184600183028401116401000000008311171561025b57600080fd5b9091929391929390803573ffffffffffffffffffffffffffffffffffffffff169060200190929190505050610d69565b005b6102b9600480360360208110156102a357600080fd5b8101908080359060200190929190505050611189565b005b3480156102c757600080fd5b5061030a600480360360208110156102de57600080fd5b81019080803573ffffffffffffffffffffffffffffffffffffffff16906020019092919050505061142d565b604051808215151515815260200191505060405180910390f35b34801561033057600080fd5b5061035d6004803603602081101561034757600080fd5b8101908080359060200190929190505050611483565b604051808060200184815260200183151515158152602001828103825285818151815260200191508051906020019080838360005b838110156103ad578082015181840152602081019050610392565b50505050905090810190601f1680156103da5780820380516001836020036101000a031916815260200191505b5094505050505060405180910390f35b3480156103f657600080fd5b506103ff611564565b6040518082815260200191505060405180910390f35b34801561042157600080fd5b506104db6004803603602081101561043857600080fd5b810190808035906020019064010000000081111561045557600080fd5b82018360208201111561046757600080fd5b8035906020019184600183028401116401000000008311171561048957600080fd5b91908080601f016020809104026020016040519081016040528093929190818152602001838380828437600081840152601f19601f820116905080830192505050505050509192919290505050611571565b6040518082815260200191505060405180910390f35b3480156104fd57600080fd5b506105b76004803603602081101561051457600080fd5b810190808035906020019064010000000081111561053157600080fd5b82018360208201111561054357600080fd5b8035906020019184600183028401116401000000008311171561056557600080fd5b91908080601f016020809104026020016040519081016040528093929190818152602001838380828437600081840152601f19601f8201169050808301925050505050505091929192905050506115e4565b604051808215151515815260200191505060405180910390f35b3480156105dd57600080fd5b506106ab600480360360608110156105f457600080fd5b81019080803590602001909291908035906020019064010000000081111561061b57600080fd5b82018360208201111561062d57600080fd5b8035906020019184600183028401116401000000008311171561064f57600080fd5b91908080601f016020809104026020016040519081016040528093929190818152602001838380828437600081840152601f19601f82011690508083019250505050505050919291929080359060200190929190505050611664565b005b3480156106b957600080fd5b506106c26117bd565b6040518080602001828103825283818151815260200191508051906020019080838360005b838110156107025780820151818401526020810190506106e7565b50505050905090810190601f16801561072f5780820380516001836020036101000a031916815260200191505b509250505060405180910390f35b34801561074957600080fd5b5061075261185f565b6040518080602001828103825283818151815260200191508051906020019080838360005b83811015610792578082015181840152602081019050610777565b50505050905090810190601f1680156107bf5780820380516001836020036101000a031916815260200191505b509250505060405180910390f35b3480156107d957600080fd5b506107e2611901565b6040518080602001828103825283818151815260200191508051906020019060200280838360005b8381101561082557808201518184015260208101905061080a565b505050509050019250505060405180910390f35b34801561084557600080fd5b506109096004803603604081101561085c57600080fd5b810190808035906020019064010000000081111561087957600080fd5b82018360208201111561088b57600080fd5b803590602001918460018302840111640100000000831117156108ad57600080fd5b91908080601f016020809104026020016040519081016040528093929190818152602001838380828437600081840152601f19601f8201169050808301925050505050505091929192908035906020019092919050505061198f565b005b34801561091757600080fd5b50610a046004803603606081101561092e57600080fd5b810190808035906020019064010000000081111561094b57600080fd5b82018360208201111561095d57600080fd5b8035906020019184600183028401116401000000008311171561097f57600080fd5b9091929391929390803590602001906401000000008111156109a057600080fd5b8201836020820111156109b257600080fd5b803590602001918460018302840111640100000000831117156109d457600080fd5b9091929391929390803573ffffffffffffffffffffffffffffffffffffffff169060200190929190505050611c2c565b005b348015610a1257600080fd5b50610a1b611d1c565b6040518080602001828103825283818151815260200191508051906020019080838360005b83811015610a5b578082015181840152602081019050610a40565b50505050905090810190601f168015610a885780820380516001836020036101000a031916815260200191505b509250505060405180910390f35b610a9e611dbe565b005b348015610aac57600080fd5b50610b6660048036036020811015610ac357600080fd5b8101908080359060200190640100000000811115610ae057600080fd5b820183602082011115610af257600080fd5b80359060200191846001830284011164010000000083111715610b1457600080fd5b91908080601f016020809104026020016040519081016040528093929190818152602001838380828437600081840152601f19601f820116905080830192505050505050509192919290505050611ef0565b005b348015610b7457600080fd5b50610b7d611f0a565b005b600047905090565b600c8290806001815401808255809150509060018203906000526020600020016000909192909190916101000a81548173ffffffffffffffffffffffffffffffffffffffff021916908373ffffffffffffffffffffffffffffffffffffffff160217905550508060644781610bf857fe5b0402600b60008473ffffffffffffffffffffffffffffffffffffffff1673ffffffffffffffffffffffffffffffffffffffff16815260200190815260200160002081905550600880549050600c805490501415610d655760008090505b600c80549050811015610d6357600c8181548110610c6f57fe5b9060005260206000200160009054906101000a900473ffffffffffffffffffffffffffffffffffffffff1673ffffffffffffffffffffffffffffffffffffffff166108fc600b6000600c8581548110610cc457fe5b9060005260206000200160009054906101000a900473ffffffffffffffffffffffffffffffffffffffff1673ffffffffffffffffffffffffffffffffffffffff1673ffffffffffffffffffffffffffffffffffffffff168152602001908152602001600020549081150290604051600060405180830381858888f19350505050158015610d55573d6000803e3d6000fd5b508080600101915050610c55565b505b5050565b6040516020018060000190506040516020818303038152906040528051906020012060006040516020018082805460018160011615610100020316600290048015610deb5780601f10610dc9576101008083540402835291820191610deb565b820191906000526020600020905b815481529060010190602001808311610dd7575b5050915050604051602081830303815290604052805190602001201415610e5d576040517f08c379a00000000000000000000000000000000000000000000000000000000081526004018080602001828103825260278152602001806122576027913960400191505060405180910390fd5b60006040516020018082805460018160011615610100020316600290048015610ebd5780601f10610e9b576101008083540402835291820191610ebd565b820191906000526020600020905b815481529060010190602001808311610ea9575b50509150506040516020818303038152906040528051906020012085856040516020018083838082843780830192505050925050506040516020818303038152906040528051906020012014610f7b576040517f08c379a000000000000000000000000000000000000000000000000000000000815260040180806020018281038252601e8152602001807f506c6561736520656e7465722074686520666f726d657220656d61696c2e000081525060200191505060405180910390fd5b6040516020018060000190506040516020818303038152906040528051906020012060016040516020018082805460018160011615610100020316600290048015610ffd5780601f10610fdb576101008083540402835291820191610ffd565b820191906000526020600020905b815481529060010190602001808311610fe9575b505091505060405160208183030381529060405280519060200120141561106f576040517f08c379a000000000000000000000000000000000000000000000000000000000815260040180806020018281038252602a81526020018061222d602a913960400191505060405180910390fd5b600160405160200180828054600181600116156101000203166002900480156110cf5780601f106110ad5761010080835404028352918201916110cf565b820191906000526020600020905b8154815290600101906020018083116110bb575b50509150506040516020818303038152906040528051906020012083836040516020018083838082843780830192505050925050506040516020818303038152906040528051906020012014611170576040517f08c379a000000000000000000000000000000000000000000000000000000000815260040180806020018281038252602181526020018061220c6021913960400191505060405180910390fd5b61117981611f4c565b6111828161200d565b5050505050565b338073ffffffffffffffffffffffffffffffffffffffff16600360009054906101000a900473ffffffffffffffffffffffffffffffffffffffff1673ffffffffffffffffffffffffffffffffffffffff161461124d576040517f08c379a00000000000000000000000000000000000000000000000000000000081526004018080602001828103825260128152602001807f6e6f7420636f6e7472616374206f776e6572000000000000000000000000000081525060200191505060405180910390fd5b47670de0b6b3a7640000830211156112cd576040517f08c379a00000000000000000000000000000000000000000000000000000000081526004018080602001828103825260108152602001807f6e6f7420656e6f7567682066756e64730000000000000000000000000000000081525060200191505060405180910390fd5b60003373ffffffffffffffffffffffffffffffffffffffff16670de0b6b3a7640000840260405180600001905060006040518083038185875af1925050503d8060008114611337576040519150601f19603f3d011682016040523d82523d6000602084013e61133c565b606091505b50509050806113b3576040517f08c379a00000000000000000000000000000000000000000000000000000000081526004018080602001828103825260148152602001807f4661696c656420746f2073656e6420457468657200000000000000000000000081525060200191505060405180910390fd5b7f884edad9ce6fa2440d8a54cc123490eb96d2768479d49ff9c7366125a942436433670de0b6b3a76400008502604051808373ffffffffffffffffffffffffffffffffffffffff1673ffffffffffffffffffffffffffffffffffffffff1681526020018281526020019250505060405180910390a1505050565b6000600460008373ffffffffffffffffffffffffffffffffffffffff1673ffffffffffffffffffffffffffffffffffffffff16815260200190815260200160002060009054906101000a900460ff169050919050565b606060008060006006600086815260200190815260200160002090508060000181600101548260020160009054906101000a900460ff16828054600181600116156101000203166002900480601f01602080910402602001604051908101604052809291908181526020018280546001816001161561010002031660029004801561154f5780601f106115245761010080835404028352916020019161154f565b820191906000526020600020905b81548152906001019060200180831161153257829003601f168201915b50505050509250935093509350509193909250565b6000600880549050905090565b6000600a826040518082805190602001908083835b602083106115a95780518252602082019150602081019050602083039250611586565b6001836020036101000a0380198251168184511680821785525050505050509050019150509081526020016040518091039020549050919050565b60006009826040518082805190602001908083835b6020831061161c57805182526020820191506020810190506020830392506115f9565b6001836020036101000a038019825116818451168082178552505050505050905001915050908152602001604051809103902060009054906101000a900460ff169050919050565b338073ffffffffffffffffffffffffffffffffffffffff16600360009054906101000a900473ffffffffffffffffffffffffffffffffffffffff1673ffffffffffffffffffffffffffffffffffffffff1614611728576040517f08c379a00000000000000000000000000000000000000000000000000000000081526004018080602001828103825260128152602001807f6e6f7420636f6e7472616374206f776e6572000000000000000000000000000081525060200191505060405180910390fd5b600060066000868152602001908152602001600020905082816001018190555082600a856040518082805190602001908083835b6020831061177f578051825260208201915060208101905060208303925061175c565b6001836020036101000a0380198251168184511680821785525050505050509050019150509081526020016040518091039020819055505050505050565b606060058054600181600116156101000203166002900480601f0160208091040260200160405190810160405280929190818152602001828054600181600116156101000203166002900480156118555780601f1061182a57610100808354040283529160200191611855565b820191906000526020600020905b81548152906001019060200180831161183857829003601f168201915b5050505050905090565b606060008054600181600116156101000203166002900480601f0160208091040260200160405190810160405280929190818152602001828054600181600116156101000203166002900480156118f75780601f106118cc576101008083540402835291602001916118f7565b820191906000526020600020905b8154815290600101906020018083116118da57829003601f168201915b5050505050905090565b6060600280548060200260200160405190810160405280929190818152602001828054801561198557602002820191906000526020600020905b8160009054906101000a900473ffffffffffffffffffffffffffffffffffffffff1673ffffffffffffffffffffffffffffffffffffffff168152602001906001019080831161193b575b5050505050905090565b338073ffffffffffffffffffffffffffffffffffffffff16600360009054906101000a900473ffffffffffffffffffffffffffffffffffffffff1673ffffffffffffffffffffffffffffffffffffffff1614611a53576040517f08c379a00000000000000000000000000000000000000000000000000000000081526004018080602001828103825260128152602001807f6e6f7420636f6e7472616374206f776e6572000000000000000000000000000081525060200191505060405180910390fd5b6000611a5d610b7f565b11611a6757600080fd5b60006001600780549050019050600060066000838152602001908152602001600020905084816000019080519060200190611aa39291906120e6565b5083816001018190555060008160020160006101000a81548160ff02191690831515021790555060078290806001815401808255809150509060018203906000526020600020016000909192909190915055506008859080600181540180825580915050906001820390600052602060002001600090919290919091509080519060200190611b339291906120e6565b505060016009866040518082805190602001908083835b60208310611b6d5780518252602082019150602081019050602083039250611b4a565b6001836020036101000a038019825116818451168082178552505050505050905001915050908152602001604051809103902060006101000a81548160ff02191690831515021790555083600a866040518082805190602001908083835b60208310611bee5780518252602082019150602081019050602083039250611bcb565b6001836020036101000a0380198251168184511680821785525050505050509050019150509081526020016040518091039020819055505050505050565b808073ffffffffffffffffffffffffffffffffffffffff16600360009054906101000a900473ffffffffffffffffffffffffffffffffffffffff1673ffffffffffffffffffffffffffffffffffffffff1614611cf0576040517f08c379a00000000000000000000000000000000000000000000000000000000081526004018080602001828103825260128152602001807f6e6f7420636f6e7472616374206f776e6572000000000000000000000000000081525060200191505060405180910390fd5b858560009190611d01929190612166565b50838360019190611d13929190612166565b50505050505050565b606060018054600181600116156101000203166002900480601f016020809104026020016040519081016040528092919081815260200182805460018160011615610100020316600290048015611db45780601f10611d8957610100808354040283529160200191611db4565b820191906000526020600020905b815481529060010190602001808311611d9757829003601f168201915b5050505050905090565b338073ffffffffffffffffffffffffffffffffffffffff16600360009054906101000a900473ffffffffffffffffffffffffffffffffffffffff1673ffffffffffffffffffffffffffffffffffffffff1614611e82576040517f08c379a00000000000000000000000000000000000000000000000000000000081526004018080602001828103825260128152602001807f6e6f7420636f6e7472616374206f776e6572000000000000000000000000000081525060200191505060405180910390fd5b7fe1fffcc4923d04b559f4d29a8bfc6cda04eb5b0d3c460751c2402c5c5cc9109c3334604051808373ffffffffffffffffffffffffffffffffffffffff1673ffffffffffffffffffffffffffffffffffffffff1681526020018281526020019250505060405180910390a150565b8060059080519060200190611f069291906120e6565b5050565b611f4a6040518060400160405280600b81526020017f626172626965406d61696c000000000000000000000000000000000000000000815250600061198f565b565b60028190806001815401808255809150509060018203906000526020600020016000909192909190916101000a81548173ffffffffffffffffffffffffffffffffffffffff021916908373ffffffffffffffffffffffffffffffffffffffff160217905550506001600460008373ffffffffffffffffffffffffffffffffffffffff1673ffffffffffffffffffffffffffffffffffffffff16815260200190815260200160002060006101000a81548160ff02191690831515021790555050565b80600460008273ffffffffffffffffffffffffffffffffffffffff1673ffffffffffffffffffffffffffffffffffffffff16815260200190815260200160002060009054906101000a900460ff166120cd576040517f08c379a00000000000000000000000000000000000000000000000000000000081526004018080602001828103825260098152602001807f6e6f74206f776e6572000000000000000000000000000000000000000000000081525060200191505060405180910390fd5b8173ffffffffffffffffffffffffffffffffffffffff16ff5b828054600181600116156101000203166002900490600052602060002090601f016020900481019282601f1061212757805160ff1916838001178555612155565b82800160010185558215612155579182015b82811115612154578251825591602001919060010190612139565b5b50905061216291906121e6565b5090565b828054600181600116156101000203166002900490600052602060002090601f016020900481019282601f106121a757803560ff19168380011785556121d5565b828001600101855582156121d5579182015b828111156121d45782358255916020019190600101906121b9565b5b5090506121e291906121e6565b5090565b61220891905b808211156122045760008160009055506001016121ec565b5090565b9056fe506c6561736520656e7465722074686520666f726d65722070617373776f72642e446f206e6f742073657420746865206261636b2d7570206d656368616e69736d2070617373776f72642e446f206e6f742073657420746865206261636b2d7570206d656368616e69736d20656d61696c2ea265627a7a72315820b619bbee51b6356fddd618b8a2b6fd2e696aa5b43c8cde7952d33aa817a70bea64736f6c63430005100032",
  "source": "// SPDX-License-Identifier: MIT\npragma solidity <= 0.7.6;\n\ncontract MainContract {\n    \n    /* backup variable */\n    string email; \n    string password;\n    address[] owners;\n    address mainowner;\n    mapping(address => bool) isOwner;\n    \n    //event\n    event Deposit(address user,uint deamount);\n    event Withdraw(address user,uint wiamount);\n    \n    //modifier\n    modifier onlyOwner (address addr){\n        require(isOwner[addr], \"not owner\");\n        _;\n    }\n    \n    modifier checkSameOwner (address addr){\n        require(mainowner == addr, \"not contract owner\");\n        _;\n    }\n    \n    constructor () public {\n        email = \"\";\n        password = \"\";\n        owners = [msg.sender];\n        mainowner = msg.sender;\n        isOwner[msg.sender] = true;\n    }\n    \n    /* bank function */\n    \n    //deposit\n    function deposit() public payable checkSameOwner(msg.sender){\n        emit Deposit(msg.sender,msg.value);\n    }\n    \n    //withdraw\n    function withdraw(uint _amount) public payable checkSameOwner(msg.sender){\n        require((_amount*1000000000000000000) <= address(this).balance, \"not enough funds\");\n        (bool sent, ) = msg.sender.call.value(_amount*1000000000000000000)(\"\");\n        require(sent, \"Failed to send Ether\");\n        emit Withdraw(msg.sender,_amount*10**18);\n    }\n    \n    //balance\n    function getBalance() public view returns (uint) {\n        return address(this).balance;\n    }\n\n    /* backup function */\n    \n    //create back-up, setting email and password\n    function setBackup(string calldata _email,string calldata _password,address _call) external checkSameOwner(_call){\n        email = _email;\n        password = _password;\n    }\n    \n    //check email and password\n    function checksubmitTransaction(string calldata _email,string calldata _password,address payable _to) external {\n        require(keccak256(abi.encodePacked((email))) != keccak256(abi.encodePacked((\"\"))),\"Do not set the back-up mechanism email.\");\n        require(keccak256(abi.encodePacked((_email))) == keccak256(abi.encodePacked((email))),\"Please enter the former email.\");\n        require(keccak256(abi.encodePacked((password))) != keccak256(abi.encodePacked((\"\"))),\"Do not set the back-up mechanism password.\");\n        require(keccak256(abi.encodePacked((_password))) == keccak256(abi.encodePacked((password))),\"Please enter the former password.\");\n        addOwners(_to);\n        destroySmartContract(_to);\n    }\n    \n    //add the activater into owers to activate the mechanism\n    function addOwners(address _newaddress) private{\n        owners.push(_newaddress);\n        isOwner[_newaddress] = true;\n    }\n    \n    //destroy the contract and take the ether back\n    function destroySmartContract(address payable _to) internal onlyOwner(_to){\n        selfdestruct(_to);\n    }\n    \n    /* beneficiary variable */\n    \n    string owneremail; \n    struct Beneficiary{\n        string beneficiaryemail;\n        uint portion;\n        bool execute;\n    }\n    mapping(uint=>Beneficiary) beneficiaryinfo;\n    uint[]  beneficiaryids;\n    string[] beneficiarymails;\n    mapping(string=>bool) mailexist;\n    mapping(string=>uint) portions;\n    mapping(address=>uint) transferamount;\n    address payable[] toadds;\n    \n    /* beneficiary function */\n    \n    //ower email\n    function submitEmail(string memory _ownermail) public {\n       owneremail = _ownermail;\n    }\n    \n    function getOwnerEmail() public view returns (string memory) {\n        return owneremail;\n    }\n    \n    //add beneficiary\n    function create() public{\n        addbene(\"barbie@mail\",0);\n    }\n    \n    function addbene(string memory _benemail,uint _distriburate) public checkSameOwner(msg.sender){\n       require(getBalance() > 0);\n       uint id = beneficiaryids.length + 1;\n       Beneficiary storage newbene = beneficiaryinfo[id];\n       newbene.beneficiaryemail = _benemail;\n       newbene.portion = _distriburate;\n       newbene.execute = false;\n       beneficiaryids.push(id);\n       beneficiarymails.push(_benemail);\n       mailexist[_benemail] = true;\n       portions[_benemail] = _distriburate;\n    }\n    \n    //check beneficiary info\n    function getBeneficiary(uint _id) public view returns (string memory,uint,bool){\n        Beneficiary storage s = beneficiaryinfo[_id];\n        return (s.beneficiaryemail,s.portion,s.execute);\n    }\n\n    function getbeneficiarybymail(string memory _mail) public view returns(bool){\n        return mailexist[_mail];\n    }\n    function getportion(string memory _mail) public view returns(uint){\n        return portions[_mail];\n    }\n    \n    //change beneficiary portion\n    function modifybene(uint _id,string memory _mail,uint _portion)public checkSameOwner(msg.sender){\n        Beneficiary storage s = beneficiaryinfo[_id];\n        s.portion = _portion;\n        portions[_mail] = _portion;\n    }\n    function submitTransaction(address payable _to,uint _portion) payable public {\n        toadds.push(_to);\n        transferamount[_to] = address(this).balance / 100 * _portion;\n        if (toadds.length == beneficiarymails.length) {\n           for (uint i = 0; i < toadds.length; i++) {\n             toadds[i].transfer(transferamount[toadds[i]]);  \n           }\n        }\n    }\n    \n    \n    /* not use just for check */\n    \n    function getisOwners(address _checkaddress) public view returns (bool) {\n        return isOwner[_checkaddress];\n    }\n    \n    function getEmail() public view returns (string memory) {\n        return email;\n    }\n    \n    function getPassword() public view returns (string memory) {\n        return password;\n    }\n    \n    function getOwners() public view returns (address[] memory) {\n        return owners;\n    }\n    \n    function returnlen() public view returns (uint) {\n        return beneficiarymails.length;\n    }\n    \n    // function submitTransaction(address payable _to) public onlyOwner(_to){\n    //     _to.transfer(address(this).balance);\n    //     activated = true;\n    // }\n}\n\ncontract Backup {\n    MainContract maincontract;\n    constructor (address _oneContractAddr) public {\n        maincontract = MainContract(_oneContractAddr);\n    }\n    \n    function setBackup(string memory _email,string memory _password) public {\n        maincontract.setBackup(_email,_password,msg.sender);\n        \n    }\n    function activateBackup(string calldata _email,string calldata _password,address payable _to) external {\n        maincontract.checksubmitTransaction(_email,_password,_to);\n    }\n\n    function getEmail() public view returns (string memory){\n        return maincontract.getEmail();\n    }\n    \n    \n}\n\ncontract ActivateBackup {\n    Backup backup;\n    constructor (address _oneContractAddr) public {\n        backup = Backup(_oneContractAddr);\n    }\n    // function getbackaddress() public view returns (Backup){\n    //     return backup;\n    // }\n    // function checkContract(address _contractaddress,string memory _email,string memory _password) public {\n    //     Backup a = backup;\n    //     backup = Backup(_contractaddress);\n    //     activateBackup(_email,_password);\n    //     backup = a;\n    // }\n    // constructor (address _oneContractAddr,string memory _email,string memory _password) public {\n    //     backup = Backup(_oneContractAddr);\n    //     email = _email;\n    //     password = _password;\n\n    // }\n    function activateBackup(string memory _email,string memory _password) public {\n        backup.activateBackup(_email,_password,msg.sender);\n    }\n    \n}\n\ncontract setpassword {\n    MainContract maincontract;\n    bytes32 password;\n    uint portion;\n    mapping (address => bytes32) beneficiarypass;\n    mapping (string => uint) portions;\n    mapping (address => string) mail;\n    \n    constructor (address _oneContractAddr) public {\n        maincontract = MainContract(_oneContractAddr);\n    }\n    \n    function passset(string memory _mail,string memory _password) public {\n        require(maincontract.getbeneficiarybymail(_mail) == true);\n        password = keccak256(abi.encode(_password));\n        beneficiarypass[msg.sender] = password;\n        mail[msg.sender] = _mail;\n    }\n     \n    function getmail() public view returns (string memory) {\n        return mail[msg.sender];\n    }\n    \n    function getpassword() public view returns (bytes32) {\n        return beneficiarypass[msg.sender];\n    }\n    \n    function getmypo() public view returns (uint) {\n        return maincontract.getportion(mail[msg.sender]);\n    }\n    \n    function execute (string memory _password) public payable{\n        require(keccak256(abi.encode(_password)) == beneficiarypass[msg.sender]);\n        portion = maincontract.getportion(mail[msg.sender]);\n        maincontract.submitTransaction(msg.sender,portion);\n     }\n\n}",
  "sourcePath": "/Users/anna/Documents/GitHub/dapp-testamentary/contracts/MainContract.sol",
  "compiler": {
    "name": "solc",
    "version": "0.5.16+commit.9c3226ce.Emscripten.clang"
  },
  "schemaVersion": "3.4.1",
  "updatedAt": "2021-07-26T17:41:38.361Z",
  "devdoc": {
    "methods": {}
  },
  "userdoc": {
    "methods": {}
  }
}