{
  "contractName": "MainContract",
  "abi": [
    {
      "inputs": [
        {
          "internalType": "string",
          "name": "_id",
          "type": "string"
        }
      ],
      "payable": false,
      "stateMutability": "nonpayable",
      "type": "constructor"
    },
    {
      "anonymous": false,
      "inputs": [
        {
          "indexed": false,
          "internalType": "address",
          "name": "user",
          "type": "address"
        },
        {
          "indexed": false,
          "internalType": "uint256",
          "name": "deamount",
          "type": "uint256"
        }
      ],
      "name": "Deposit",
      "type": "event"
    },
    {
      "anonymous": false,
      "inputs": [
        {
          "indexed": false,
          "internalType": "address",
          "name": "user",
          "type": "address"
        },
        {
          "indexed": false,
          "internalType": "uint256",
          "name": "wiamount",
          "type": "uint256"
        }
      ],
      "name": "Withdraw",
      "type": "event"
    },
    {
      "constant": false,
      "inputs": [],
      "name": "deposit",
      "outputs": [],
      "payable": true,
      "stateMutability": "payable",
      "type": "function"
    },
    {
      "constant": false,
      "inputs": [
        {
          "internalType": "uint256",
          "name": "_amount",
          "type": "uint256"
        }
      ],
      "name": "withdraw",
      "outputs": [],
      "payable": true,
      "stateMutability": "payable",
      "type": "function"
    },
    {
      "constant": true,
      "inputs": [],
      "name": "getBalance",
      "outputs": [
        {
          "internalType": "uint256",
          "name": "",
          "type": "uint256"
        }
      ],
      "payable": false,
      "stateMutability": "view",
      "type": "function"
    },
    {
      "constant": true,
      "inputs": [],
      "name": "getIdno",
      "outputs": [
        {
          "internalType": "string",
          "name": "",
          "type": "string"
        }
      ],
      "payable": false,
      "stateMutability": "view",
      "type": "function"
    },
    {
      "constant": false,
      "inputs": [
        {
          "internalType": "string",
          "name": "_email",
          "type": "string"
        },
        {
          "internalType": "string",
          "name": "_password",
          "type": "string"
        },
        {
          "internalType": "string",
          "name": "_idNo",
          "type": "string"
        }
      ],
      "name": "setBackup",
      "outputs": [],
      "payable": false,
      "stateMutability": "nonpayable",
      "type": "function"
    },
    {
      "constant": false,
      "inputs": [
        {
          "internalType": "string",
          "name": "_idNo",
          "type": "string"
        },
        {
          "internalType": "string",
          "name": "_email",
          "type": "string"
        },
        {
          "internalType": "string",
          "name": "_password",
          "type": "string"
        },
        {
          "internalType": "address payable",
          "name": "_to",
          "type": "address"
        }
      ],
      "name": "checksubmitTransaction",
      "outputs": [],
      "payable": false,
      "stateMutability": "nonpayable",
      "type": "function"
    },
    {
      "constant": false,
      "inputs": [
        {
          "internalType": "string",
          "name": "_ownermail",
          "type": "string"
        }
      ],
      "name": "submitEmail",
      "outputs": [],
      "payable": false,
      "stateMutability": "nonpayable",
      "type": "function"
    },
    {
      "constant": true,
      "inputs": [],
      "name": "getOwnerEmail",
      "outputs": [
        {
          "internalType": "string",
          "name": "",
          "type": "string"
        }
      ],
      "payable": false,
      "stateMutability": "view",
      "type": "function"
    },
    {
      "constant": false,
      "inputs": [
        {
          "internalType": "string",
          "name": "_benemail",
          "type": "string"
        },
        {
          "internalType": "uint256",
          "name": "_distriburate",
          "type": "uint256"
        },
        {
          "internalType": "string",
          "name": "_identity",
          "type": "string"
        }
      ],
      "name": "addbene",
      "outputs": [],
      "payable": false,
      "stateMutability": "nonpayable",
      "type": "function"
    },
    {
      "constant": true,
      "inputs": [
        {
          "internalType": "uint256",
          "name": "_id",
          "type": "uint256"
        }
      ],
      "name": "getBeneficiary",
      "outputs": [
        {
          "internalType": "string",
          "name": "",
          "type": "string"
        },
        {
          "internalType": "uint256",
          "name": "",
          "type": "uint256"
        },
        {
          "internalType": "bool",
          "name": "",
          "type": "bool"
        }
      ],
      "payable": false,
      "stateMutability": "view",
      "type": "function"
    },
    {
      "constant": true,
      "inputs": [
        {
          "internalType": "string",
          "name": "_mail",
          "type": "string"
        }
      ],
      "name": "getbeneficiarybymail",
      "outputs": [
        {
          "internalType": "bool",
          "name": "",
          "type": "bool"
        }
      ],
      "payable": false,
      "stateMutability": "view",
      "type": "function"
    },
    {
      "constant": true,
      "inputs": [
        {
          "internalType": "string",
          "name": "_mail",
          "type": "string"
        }
      ],
      "name": "getportion",
      "outputs": [
        {
          "internalType": "uint256",
          "name": "",
          "type": "uint256"
        }
      ],
      "payable": false,
      "stateMutability": "view",
      "type": "function"
    },
    {
      "constant": true,
      "inputs": [
        {
          "internalType": "string",
          "name": "_mail",
          "type": "string"
        }
      ],
      "name": "getbeneficiaryidbymail",
      "outputs": [
        {
          "internalType": "string",
          "name": "",
          "type": "string"
        }
      ],
      "payable": false,
      "stateMutability": "view",
      "type": "function"
    },
    {
      "constant": false,
      "inputs": [
        {
          "internalType": "uint256",
          "name": "_id",
          "type": "uint256"
        },
        {
          "internalType": "string",
          "name": "_mail",
          "type": "string"
        },
        {
          "internalType": "uint256",
          "name": "_portion",
          "type": "uint256"
        }
      ],
      "name": "modifybene",
      "outputs": [],
      "payable": false,
      "stateMutability": "nonpayable",
      "type": "function"
    },
    {
      "constant": false,
      "inputs": [
        {
          "internalType": "address payable",
          "name": "_to",
          "type": "address"
        },
        {
          "internalType": "uint256",
          "name": "_portion",
          "type": "uint256"
        }
      ],
      "name": "submitTransaction",
      "outputs": [],
      "payable": false,
      "stateMutability": "nonpayable",
      "type": "function"
    },
    {
      "constant": true,
      "inputs": [
        {
          "internalType": "address",
          "name": "_checkaddress",
          "type": "address"
        }
      ],
      "name": "getisOwners",
      "outputs": [
        {
          "internalType": "bool",
          "name": "",
          "type": "bool"
        }
      ],
      "payable": false,
      "stateMutability": "view",
      "type": "function"
    },
    {
      "constant": true,
      "inputs": [],
      "name": "getEmail",
      "outputs": [
        {
          "internalType": "string",
          "name": "",
          "type": "string"
        }
      ],
      "payable": false,
      "stateMutability": "view",
      "type": "function"
    },
    {
      "constant": true,
      "inputs": [],
      "name": "getPassword",
      "outputs": [
        {
          "internalType": "string",
          "name": "",
          "type": "string"
        }
      ],
      "payable": false,
      "stateMutability": "view",
      "type": "function"
    },
    {
      "constant": true,
      "inputs": [],
      "name": "getOwners",
      "outputs": [
        {
          "internalType": "address[]",
          "name": "",
          "type": "address[]"
        }
      ],
      "payable": false,
      "stateMutability": "view",
      "type": "function"
    },
    {
      "constant": true,
      "inputs": [],
      "name": "returnlen",
      "outputs": [
        {
          "internalType": "uint256",
          "name": "",
          "type": "uint256"
        }
      ],
      "payable": false,
      "stateMutability": "view",
      "type": "function"
    }
  ],
  "bytecode": "0x60806040523480156200001157600080fd5b506040516200320f3803806200320f833981810160405260208110156200003757600080fd5b81019080805160405193929190846401000000008211156200005857600080fd5b838201915060208201858111156200006f57600080fd5b82518660018202830111640100000000821117156200008d57600080fd5b8083526020830192505050908051906020019080838360005b83811015620000c3578082015181840152602081019050620000a6565b50505050905090810190601f168015620000f15780820380516001836020036101000a031916815260200191505b5060405250505060405180602001604052806000815250600090805190602001906200011f929190620004e7565b50604051806020016040528060008152506001908051906020019062000147929190620004e7565b50806002908051906020019062000160929190620004e7565b5060405180602001604052803373ffffffffffffffffffffffffffffffffffffffff1673ffffffffffffffffffffffffffffffffffffffff168152506003906001620001ae9291906200056e565b5033600460006101000a81548173ffffffffffffffffffffffffffffffffffffffff021916908373ffffffffffffffffffffffffffffffffffffffff1602179055506001600560003373ffffffffffffffffffffffffffffffffffffffff1673ffffffffffffffffffffffffffffffffffffffff16815260200190815260200160002060006101000a81548160ff02191690831515021790555060006009600080815260200190815260200160002090506040518060400160405280601581526020017f62656175747967616e673440676d61696c2e636f6d0000000000000000000000815250816000019080519060200190620002ae929190620004e7565b506005816001018190555060008160020160006101000a81548160ff021916908315150217905550600b8060018154018082558091505090600182039060005260206000200160006040518060400160405280601581526020017f62656175747967616e673440676d61696c2e636f6d00000000000000000000008152509091909150908051906020019062000346929190620004e7565b50506001600c60405180807f62656175747967616e673440676d61696c2e636f6d00000000000000000000008152506015019050908152602001604051809103902060006101000a81548160ff0219169083151502179055506005600d60405180807f62656175747967616e673440676d61696c2e636f6d00000000000000000000008152506015019050908152602001604051809103902081905550600f8060018154018082558091505090600182039060005260206000200160006040518060400160405280600a81526020017f30303030303030303030000000000000000000000000000000000000000000008152509091909150908051906020019062000453929190620004e7565b50506040518060400160405280600a81526020017f3030303030303030303000000000000000000000000000000000000000000000815250601060405180807f62656175747967616e673440676d61696c2e636f6d0000000000000000000000815250601501905090815260200160405180910390209080519060200190620004de929190620004e7565b5050506200066b565b828054600181600116156101000203166002900490600052602060002090601f016020900481019282601f106200052a57805160ff19168380011785556200055b565b828001600101855582156200055b579182015b828111156200055a5782518255916020019190600101906200053d565b5b5090506200056a9190620005fd565b5090565b828054828255906000526020600020908101928215620005ea579160200282015b82811115620005e95782518260006101000a81548173ffffffffffffffffffffffffffffffffffffffff021916908373ffffffffffffffffffffffffffffffffffffffff160217905550916020019190600101906200058f565b5b509050620005f9919062000625565b5090565b6200062291905b808211156200061e57600081600090555060010162000604565b5090565b90565b6200066891905b808211156200066457600081816101000a81549073ffffffffffffffffffffffffffffffffffffffff0219169055506001016200062c565b5090565b90565b612b94806200067b6000396000f3fe60806040526004361061011f5760003560e01c80634349f268116100a0578063a0e67e2b11610064578063a0e67e2b14610c01578063b1e4c1a814610c6d578063cc8e239414610dd6578063d0e30db014610e66578063dbfc560a14610e705761011f565b80634349f268146106ce57806346e287cc146107aa5780634ba42408146109a057806371fadca814610a305780637e79e8ba14610b715761011f565b8063302df083116100e7578063302df083146102d157806331c29c831461039757806333294497146103c257806336d587c5146105125780633f1fb69d146105ee5761011f565b806312065fe0146101245780631d43b6531461014f578063289cdf3c146101aa5780632e1a7d4d1461023a5780632e986e1614610268575b600080fd5b34801561013057600080fd5b50610139610f38565b6040518082815260200191505060405180910390f35b34801561015b57600080fd5b506101a86004803603604081101561017257600080fd5b81019080803573ffffffffffffffffffffffffffffffffffffffff16906020019092919080359060200190929190505050610f40565b005b3480156101b657600080fd5b506101bf611122565b6040518080602001828103825283818151815260200191508051906020019080838360005b838110156101ff5780820151818401526020810190506101e4565b50505050905090810190601f16801561022c5780820380516001836020036101000a031916815260200191505b509250505060405180910390f35b6102666004803603602081101561025057600080fd5b81019080803590602001909291905050506111c4565b005b34801561027457600080fd5b506102b76004803603602081101561028b57600080fd5b81019080803573ffffffffffffffffffffffffffffffffffffffff169060200190929190505050611454565b604051808215151515815260200191505060405180910390f35b3480156102dd57600080fd5b5061030a600480360360208110156102f457600080fd5b81019080803590602001909291905050506114aa565b604051808060200184815260200183151515158152602001828103825285818151815260200191508051906020019080838360005b8381101561035a57808201518184015260208101905061033f565b50505050905090810190601f1680156103875780820380516001836020036101000a031916815260200191505b5094505050505060405180910390f35b3480156103a357600080fd5b506103ac61158b565b6040518082815260200191505060405180910390f35b3480156103ce57600080fd5b50610510600480360360808110156103e557600080fd5b810190808035906020019064010000000081111561040257600080fd5b82018360208201111561041457600080fd5b8035906020019184600183028401116401000000008311171561043657600080fd5b90919293919293908035906020019064010000000081111561045757600080fd5b82018360208201111561046957600080fd5b8035906020019184600183028401116401000000008311171561048b57600080fd5b9091929391929390803590602001906401000000008111156104ac57600080fd5b8201836020820111156104be57600080fd5b803590602001918460018302840111640100000000831117156104e057600080fd5b9091929391929390803573ffffffffffffffffffffffffffffffffffffffff169060200190929190505050611598565b005b34801561051e57600080fd5b506105d86004803603602081101561053557600080fd5b810190808035906020019064010000000081111561055257600080fd5b82018360208201111561056457600080fd5b8035906020019184600183028401116401000000008311171561058657600080fd5b91908080601f016020809104026020016040519081016040528093929190818152602001838380828437600081840152601f19601f820116905080830192505050505050509192919290505050611b60565b6040518082815260200191505060405180910390f35b3480156105fa57600080fd5b506106b46004803603602081101561061157600080fd5b810190808035906020019064010000000081111561062e57600080fd5b82018360208201111561064057600080fd5b8035906020019184600183028401116401000000008311171561066257600080fd5b91908080601f016020809104026020016040519081016040528093929190818152602001838380828437600081840152601f19601f820116905080830192505050505050509192919290505050611bd3565b604051808215151515815260200191505060405180910390f35b3480156106da57600080fd5b506107a8600480360360608110156106f157600080fd5b81019080803590602001909291908035906020019064010000000081111561071857600080fd5b82018360208201111561072a57600080fd5b8035906020019184600183028401116401000000008311171561074c57600080fd5b91908080601f016020809104026020016040519081016040528093929190818152602001838380828437600081840152601f19601f82011690508083019250505050505050919291929080359060200190929190505050611c53565b005b3480156107b657600080fd5b5061099e600480360360608110156107cd57600080fd5b81019080803590602001906401000000008111156107ea57600080fd5b8201836020820111156107fc57600080fd5b8035906020019184600183028401116401000000008311171561081e57600080fd5b91908080601f016020809104026020016040519081016040528093929190818152602001838380828437600081840152601f19601f8201169050808301925050505050505091929192908035906020019064010000000081111561088157600080fd5b82018360208201111561089357600080fd5b803590602001918460018302840111640100000000831117156108b557600080fd5b91908080601f016020809104026020016040519081016040528093929190818152602001838380828437600081840152601f19601f8201169050808301925050505050505091929192908035906020019064010000000081111561091857600080fd5b82018360208201111561092a57600080fd5b8035906020019184600183028401116401000000008311171561094c57600080fd5b91908080601f016020809104026020016040519081016040528093929190818152602001838380828437600081840152601f19601f820116905080830192505050505050509192919290505050611dac565b005b3480156109ac57600080fd5b506109b5612006565b6040518080602001828103825283818151815260200191508051906020019080838360005b838110156109f55780820151818401526020810190506109da565b50505050905090810190601f168015610a225780820380516001836020036101000a031916815260200191505b509250505060405180910390f35b348015610a3c57600080fd5b50610af660048036036020811015610a5357600080fd5b8101908080359060200190640100000000811115610a7057600080fd5b820183602082011115610a8257600080fd5b80359060200191846001830284011164010000000083111715610aa457600080fd5b91908080601f016020809104026020016040519081016040528093929190818152602001838380828437600081840152601f19601f8201169050808301925050505050505091929192905050506120a8565b6040518080602001828103825283818151815260200191508051906020019080838360005b83811015610b36578082015181840152602081019050610b1b565b50505050905090810190601f168015610b635780820380516001836020036101000a031916815260200191505b509250505060405180910390f35b348015610b7d57600080fd5b50610b866121b3565b6040518080602001828103825283818151815260200191508051906020019080838360005b83811015610bc6578082015181840152602081019050610bab565b50505050905090810190601f168015610bf35780820380516001836020036101000a031916815260200191505b509250505060405180910390f35b348015610c0d57600080fd5b50610c16612255565b6040518080602001828103825283818151815260200191508051906020019060200280838360005b83811015610c59578082015181840152602081019050610c3e565b505050509050019250505060405180910390f35b348015610c7957600080fd5b50610dd460048036036060811015610c9057600080fd5b8101908080359060200190640100000000811115610cad57600080fd5b820183602082011115610cbf57600080fd5b80359060200191846001830284011164010000000083111715610ce157600080fd5b91908080601f016020809104026020016040519081016040528093929190818152602001838380828437600081840152601f19601f8201169050808301925050505050505091929192908035906020019092919080359060200190640100000000811115610d4e57600080fd5b820183602082011115610d6057600080fd5b80359060200191846001830284011164010000000083111715610d8257600080fd5b91908080601f016020809104026020016040519081016040528093929190818152602001838380828437600081840152601f19601f8201169050808301925050505050505091929192905050506122e3565b005b348015610de257600080fd5b50610deb6126c0565b6040518080602001828103825283818151815260200191508051906020019080838360005b83811015610e2b578082015181840152602081019050610e10565b50505050905090810190601f168015610e585780820380516001836020036101000a031916815260200191505b509250505060405180910390f35b610e6e612762565b005b348015610e7c57600080fd5b50610f3660048036036020811015610e9357600080fd5b8101908080359060200190640100000000811115610eb057600080fd5b820183602082011115610ec257600080fd5b80359060200191846001830284011164010000000083111715610ee457600080fd5b91908080601f016020809104026020016040519081016040528093929190818152602001838380828437600081840152601f19601f820116905080830192505050505050509192919290505050612894565b005b600047905090565b60128290806001815401808255809150509060018203906000526020600020016000909192909190916101000a81548173ffffffffffffffffffffffffffffffffffffffff021916908373ffffffffffffffffffffffffffffffffffffffff160217905550508060644781610fb157fe5b0402600e60008473ffffffffffffffffffffffffffffffffffffffff1673ffffffffffffffffffffffffffffffffffffffff16815260200190815260200160002081905550600b80549050601280549050141561111e5760008090505b60128054905081101561111c576012818154811061102857fe5b9060005260206000200160009054906101000a900473ffffffffffffffffffffffffffffffffffffffff1673ffffffffffffffffffffffffffffffffffffffff166108fc600e60006012858154811061107d57fe5b9060005260206000200160009054906101000a900473ffffffffffffffffffffffffffffffffffffffff1673ffffffffffffffffffffffffffffffffffffffff1673ffffffffffffffffffffffffffffffffffffffff168152602001908152602001600020549081150290604051600060405180830381858888f1935050505015801561110e573d6000803e3d6000fd5b50808060010191505061100e565b505b5050565b606060028054600181600116156101000203166002900480601f0160208091040260200160405190810160405280929190818152602001828054600181600116156101000203166002900480156111ba5780601f1061118f576101008083540402835291602001916111ba565b820191906000526020600020905b81548152906001019060200180831161119d57829003601f168201915b5050505050905090565b338073ffffffffffffffffffffffffffffffffffffffff16600460009054906101000a900473ffffffffffffffffffffffffffffffffffffffff1673ffffffffffffffffffffffffffffffffffffffff1614611288576040517f08c379a00000000000000000000000000000000000000000000000000000000081526004018080602001828103825260128152602001807f6e6f7420636f6e7472616374206f776e6572000000000000000000000000000081525060200191505060405180910390fd5b478211156112fe576040517f08c379a00000000000000000000000000000000000000000000000000000000081526004018080602001828103825260108152602001807f6e6f7420656e6f7567682066756e64730000000000000000000000000000000081525060200191505060405180910390fd5b60003373ffffffffffffffffffffffffffffffffffffffff168360405180600001905060006040518083038185875af1925050503d806000811461135e576040519150601f19603f3d011682016040523d82523d6000602084013e611363565b606091505b50509050806113da576040517f08c379a00000000000000000000000000000000000000000000000000000000081526004018080602001828103825260148152602001807f4661696c656420746f2073656e6420457468657200000000000000000000000081525060200191505060405180910390fd5b7f884edad9ce6fa2440d8a54cc123490eb96d2768479d49ff9c7366125a942436433670de0b6b3a76400008502604051808373ffffffffffffffffffffffffffffffffffffffff1673ffffffffffffffffffffffffffffffffffffffff1681526020018281526020019250505060405180910390a1505050565b6000600560008373ffffffffffffffffffffffffffffffffffffffff1673ffffffffffffffffffffffffffffffffffffffff16815260200190815260200160002060009054906101000a900460ff169050919050565b606060008060006009600086815260200190815260200160002090508060000181600101548260020160009054906101000a900460ff16828054600181600116156101000203166002900480601f0160208091040260200160405190810160405280929190818152602001828054600181600116156101000203166002900480156115765780601f1061154b57610100808354040283529160200191611576565b820191906000526020600020905b81548152906001019060200180831161155957829003601f168201915b50505050509250935093509350509193909250565b6000600b80549050905090565b86868080601f016020809104026020016040519081016040528093929190818152602001838380828437600081840152601f19601f82011690508083019250505050505050806040516020018082805190602001908083835b6020831061161457805182526020820191506020810190506020830392506115f1565b6001836020036101000a03801982511681845116808217855250505050505090500191505060405160208183030381529060405280519060200120600260405160200180828054600181600116156101000203166002900480156116af5780601f1061168d5761010080835404028352918201916116af565b820191906000526020600020905b81548152906001019060200180831161169b575b5050915050604051602081830303815290604052805190602001201461173d576040517f08c379a000000000000000000000000000000000000000000000000000000000815260040180806020018281038252600e8152602001807f6e6f7420636f727265637420696400000000000000000000000000000000000081525060200191505060405180910390fd5b60405160200180600001905060405160208183030381529060405280519060200120600060405160200180828054600181600116156101000203166002900480156117bf5780601f1061179d5761010080835404028352918201916117bf565b820191906000526020600020905b8154815290600101906020018083116117ab575b5050915050604051602081830303815290604052805190602001201415611831576040517f08c379a0000000000000000000000000000000000000000000000000000000008152600401808060200182810382526027815260200180612b396027913960400191505060405180910390fd5b600060405160200180828054600181600116156101000203166002900480156118915780601f1061186f576101008083540402835291820191611891565b820191906000526020600020905b81548152906001019060200180831161187d575b5050915050604051602081830303815290604052805190602001208686604051602001808383808284378083019250505092505050604051602081830303815290604052805190602001201461194f576040517f08c379a000000000000000000000000000000000000000000000000000000000815260040180806020018281038252601e8152602001807f506c6561736520656e7465722074686520666f726d657220656d61696c2e000081525060200191505060405180910390fd5b60405160200180600001905060405160208183030381529060405280519060200120600160405160200180828054600181600116156101000203166002900480156119d15780601f106119af5761010080835404028352918201916119d1565b820191906000526020600020905b8154815290600101906020018083116119bd575b5050915050604051602081830303815290604052805190602001201415611a43576040517f08c379a000000000000000000000000000000000000000000000000000000000815260040180806020018281038252602a815260200180612b0f602a913960400191505060405180910390fd5b60016040516020018082805460018160011615610100020316600290048015611aa35780601f10611a81576101008083540402835291820191611aa3565b820191906000526020600020905b815481529060010190602001808311611a8f575b50509150506040516020818303038152906040528051906020012084846040516020018083838082843780830192505050925050506040516020818303038152906040528051906020012014611b44576040517f08c379a0000000000000000000000000000000000000000000000000000000008152600401808060200182810382526021815260200180612aee6021913960400191505060405180910390fd5b611b4d826128ae565b611b568261296f565b5050505050505050565b6000600d826040518082805190602001908083835b60208310611b985780518252602082019150602081019050602083039250611b75565b6001836020036101000a0380198251168184511680821785525050505050509050019150509081526020016040518091039020549050919050565b6000600c826040518082805190602001908083835b60208310611c0b5780518252602082019150602081019050602083039250611be8565b6001836020036101000a038019825116818451168082178552505050505050905001915050908152602001604051809103902060009054906101000a900460ff169050919050565b338073ffffffffffffffffffffffffffffffffffffffff16600460009054906101000a900473ffffffffffffffffffffffffffffffffffffffff1673ffffffffffffffffffffffffffffffffffffffff1614611d17576040517f08c379a00000000000000000000000000000000000000000000000000000000081526004018080602001828103825260128152602001807f6e6f7420636f6e7472616374206f776e6572000000000000000000000000000081525060200191505060405180910390fd5b600060096000868152602001908152602001600020905082816001018190555082600d856040518082805190602001908083835b60208310611d6e5780518252602082019150602081019050602083039250611d4b565b6001836020036101000a0380198251168184511680821785525050505050509050019150509081526020016040518091039020819055505050505050565b338073ffffffffffffffffffffffffffffffffffffffff16600460009054906101000a900473ffffffffffffffffffffffffffffffffffffffff1673ffffffffffffffffffffffffffffffffffffffff1614611e70576040517f08c379a00000000000000000000000000000000000000000000000000000000081526004018080602001828103825260128152602001807f6e6f7420636f6e7472616374206f776e6572000000000000000000000000000081525060200191505060405180910390fd5b81806040516020018082805190602001908083835b60208310611ea85780518252602082019150602081019050602083039250611e85565b6001836020036101000a0380198251168184511680821785525050505050509050019150506040516020818303038152906040528051906020012060026040516020018082805460018160011615610100020316600290048015611f435780601f10611f21576101008083540402835291820191611f43565b820191906000526020600020905b815481529060010190602001808311611f2f575b50509150506040516020818303038152906040528051906020012014611fd1576040517f08c379a000000000000000000000000000000000000000000000000000000000815260040180806020018281038252600e8152602001807f6e6f7420636f727265637420696400000000000000000000000000000000000081525060200191505060405180910390fd5b8460009080519060200190611fe7929190612a48565b508360019080519060200190611ffe929190612a48565b505050505050565b606060088054600181600116156101000203166002900480601f01602080910402602001604051908101604052809291908181526020018280546001816001161561010002031660029004801561209e5780601f106120735761010080835404028352916020019161209e565b820191906000526020600020905b81548152906001019060200180831161208157829003601f168201915b5050505050905090565b60606010826040518082805190602001908083835b602083106120e057805182526020820191506020810190506020830392506120bd565b6001836020036101000a03801982511681845116808217855250505050505090500191505090815260200160405180910390208054600181600116156101000203166002900480601f0160208091040260200160405190810160405280929190818152602001828054600181600116156101000203166002900480156121a75780601f1061217c576101008083540402835291602001916121a7565b820191906000526020600020905b81548152906001019060200180831161218a57829003601f168201915b50505050509050919050565b606060008054600181600116156101000203166002900480601f01602080910402602001604051908101604052809291908181526020018280546001816001161561010002031660029004801561224b5780601f106122205761010080835404028352916020019161224b565b820191906000526020600020905b81548152906001019060200180831161222e57829003601f168201915b5050505050905090565b606060038054806020026020016040519081016040528092919081815260200182805480156122d957602002820191906000526020600020905b8160009054906101000a900473ffffffffffffffffffffffffffffffffffffffff1673ffffffffffffffffffffffffffffffffffffffff168152602001906001019080831161228f575b5050505050905090565b338073ffffffffffffffffffffffffffffffffffffffff16600460009054906101000a900473ffffffffffffffffffffffffffffffffffffffff1673ffffffffffffffffffffffffffffffffffffffff16146123a7576040517f08c379a00000000000000000000000000000000000000000000000000000000081526004018080602001828103825260128152602001807f6e6f7420636f6e7472616374206f776e6572000000000000000000000000000081525060200191505060405180910390fd5b60006123b1610f38565b116123bb57600080fd5b60006001600a805490500190506000600960008381526020019081526020016000209050858160000190805190602001906123f7929190612a48565b5084816001018190555060008160020160006101000a81548160ff021916908315150217905550600a829080600181540180825580915050906001820390600052602060002001600090919290919091505550600b869080600181540180825580915050906001820390600052602060002001600090919290919091509080519060200190612487929190612a48565b50506001600c876040518082805190602001908083835b602083106124c1578051825260208201915060208101905060208303925061249e565b6001836020036101000a038019825116818451168082178552505050505050905001915050908152602001604051809103902060006101000a81548160ff02191690831515021790555084600d876040518082805190602001908083835b60208310612542578051825260208201915060208101905060208303925061251f565b6001836020036101000a038019825116818451168082178552505050505050905001915050908152602001604051809103902081905550600f8490806001815401808255809150509060018203906000526020600020016000909192909190915090805190602001906125b6929190612a48565b5050836010876040518082805190602001908083835b602083106125ef57805182526020820191506020810190506020830392506125cc565b6001836020036101000a03801982511681845116808217855250505050505090500191505090815260200160405180910390209080519060200190612635929190612a48565b5060016011856040518082805190602001908083835b6020831061266e578051825260208201915060208101905060208303925061264b565b6001836020036101000a038019825116818451168082178552505050505050905001915050908152602001604051809103902060006101000a81548160ff021916908315150217905550505050505050565b606060018054600181600116156101000203166002900480601f0160208091040260200160405190810160405280929190818152602001828054600181600116156101000203166002900480156127585780601f1061272d57610100808354040283529160200191612758565b820191906000526020600020905b81548152906001019060200180831161273b57829003601f168201915b5050505050905090565b338073ffffffffffffffffffffffffffffffffffffffff16600460009054906101000a900473ffffffffffffffffffffffffffffffffffffffff1673ffffffffffffffffffffffffffffffffffffffff1614612826576040517f08c379a00000000000000000000000000000000000000000000000000000000081526004018080602001828103825260128152602001807f6e6f7420636f6e7472616374206f776e6572000000000000000000000000000081525060200191505060405180910390fd5b7fe1fffcc4923d04b559f4d29a8bfc6cda04eb5b0d3c460751c2402c5c5cc9109c3334604051808373ffffffffffffffffffffffffffffffffffffffff1673ffffffffffffffffffffffffffffffffffffffff1681526020018281526020019250505060405180910390a150565b80600890805190602001906128aa929190612a48565b5050565b60038190806001815401808255809150509060018203906000526020600020016000909192909190916101000a81548173ffffffffffffffffffffffffffffffffffffffff021916908373ffffffffffffffffffffffffffffffffffffffff160217905550506001600560008373ffffffffffffffffffffffffffffffffffffffff1673ffffffffffffffffffffffffffffffffffffffff16815260200190815260200160002060006101000a81548160ff02191690831515021790555050565b80600560008273ffffffffffffffffffffffffffffffffffffffff1673ffffffffffffffffffffffffffffffffffffffff16815260200190815260200160002060009054906101000a900460ff16612a2f576040517f08c379a00000000000000000000000000000000000000000000000000000000081526004018080602001828103825260098152602001807f6e6f74206f776e6572000000000000000000000000000000000000000000000081525060200191505060405180910390fd5b8173ffffffffffffffffffffffffffffffffffffffff16ff5b828054600181600116156101000203166002900490600052602060002090601f016020900481019282601f10612a8957805160ff1916838001178555612ab7565b82800160010185558215612ab7579182015b82811115612ab6578251825591602001919060010190612a9b565b5b509050612ac49190612ac8565b5090565b612aea91905b80821115612ae6576000816000905550600101612ace565b5090565b9056fe506c6561736520656e7465722074686520666f726d65722070617373776f72642e446f206e6f742073657420746865206261636b2d7570206d656368616e69736d2070617373776f72642e446f206e6f742073657420746865206261636b2d7570206d656368616e69736d20656d61696c2ea265627a7a72315820153d358b5f98cb8009164cf13eedd96049fa4ca3d3ba89315bf3e113818ac9b964736f6c63430005100032",
  "source": "// SPDX-License-Identifier: MIT\npragma solidity <= 0.7.6;\n\ncontract MainContract {\n    \n    /* backup variable */\n    string email; \n    string password;\n    string idno;\n    address[] owners;\n    address mainowner;\n    mapping(address => bool) isOwner;\n    uint revisepo;\n    uint totalpo;\n    \n    //event\n    event Deposit(address user,uint deamount);\n    event Withdraw(address user,uint wiamount);\n    \n    //modifier\n    modifier onlyOwner (address addr){\n        require(isOwner[addr], \"not owner\");\n        _;\n    }\n    \n    modifier checkSameOwner (address addr){\n        require(mainowner == addr, \"not contract owner\");\n        _;\n    }\n\n    modifier checkSameId (string memory _idNo){\n        require(keccak256(abi.encodePacked((idno))) == keccak256(abi.encodePacked((_idNo))), \"not correct id\");\n        _;\n    }\n    \n    constructor (string memory _id) public {\n        email = \"\";\n        password = \"\";\n        idno =_id;\n        owners = [msg.sender];\n        mainowner = msg.sender;\n        isOwner[msg.sender] = true;\n        Beneficiary storage newbene = beneficiaryinfo[0];\n        newbene.beneficiaryemail = \"beautygang4@gmail.com\";\n        newbene.portion = 5;\n        newbene.execute = false;\n        beneficiarymails.push(\"beautygang4@gmail.com\");\n        mailexist[\"beautygang4@gmail.com\"]=true;\n        portions[\"beautygang4@gmail.com\"]=5;\n        beneficiaryidentity.push(\"0000000000\");\n        identity[\"beautygang4@gmail.com\"]=\"0000000000\";\n    }\n    \n    /* bank function */\n    \n    //deposit\n    function deposit() public payable checkSameOwner(msg.sender){\n        emit Deposit(msg.sender,msg.value);\n    }\n    \n    //withdraw\n    function withdraw(uint _amount) public payable checkSameOwner(msg.sender){\n        require((_amount) <= address(this).balance, \"not enough funds\");\n        (bool sent, ) = msg.sender.call.value(_amount)(\"\");\n        require(sent, \"Failed to send Ether\");\n        emit Withdraw(msg.sender,_amount*10**18);\n    }\n    \n    //balance\n    function getBalance() public view returns (uint) {\n        return address(this).balance;\n    }\n\n    //id\n    function getIdno() external view returns (string memory){\n        return idno;\n    }\n    \n    /* backup function */\n    \n    //create back-up, setting email and password\n    function setBackup(string memory _email,string memory _password,string memory _idNo) public checkSameOwner(msg.sender) checkSameId(_idNo){\n        email = _email;\n        password = _password;\n    }\n    \n    //check email and password\n    function checksubmitTransaction(string calldata _idNo, string calldata _email,string calldata _password,address payable _to) external checkSameId(_idNo){\n        require(keccak256(abi.encodePacked((email))) != keccak256(abi.encodePacked((\"\"))),\"Do not set the back-up mechanism email.\");\n        require(keccak256(abi.encodePacked((_email))) == keccak256(abi.encodePacked((email))),\"Please enter the former email.\");\n        require(keccak256(abi.encodePacked((password))) != keccak256(abi.encodePacked((\"\"))),\"Do not set the back-up mechanism password.\");\n        require(keccak256(abi.encodePacked((_password))) == keccak256(abi.encodePacked((password))),\"Please enter the former password.\");\n        addOwners(_to);\n        destroySmartContract(_to);\n    }\n    \n    //add the activater into owers to activate the mechanism\n    function addOwners(address _newaddress) private{\n        owners.push(_newaddress);\n        isOwner[_newaddress] = true;\n    }\n    \n    //destroy the contract and take the ether back\n    function destroySmartContract(address payable _to) internal onlyOwner(_to){\n        selfdestruct(_to);\n    }\n    \n    /* beneficiary variable */\n    \n    string owneremail; \n    struct Beneficiary{\n        string beneficiaryemail;\n        uint portion;\n        bool execute;\n    }\n    mapping(uint=>Beneficiary) beneficiaryinfo;\n    uint[]  beneficiaryids;\n    string[] beneficiarymails;\n    mapping(string=>bool) mailexist;\n    mapping(string=>uint) portions;\n    mapping(address=>uint) transferamount;\n    string[] beneficiaryidentity;\n    mapping(string=>string) identity;\n    mapping(string=>bool) idexist;\n    address payable[] toadds;\n    uint[] reviseportion;\n    \n    /* beneficiary function */\n    \n    //ower email\n    function submitEmail(string memory _ownermail) public {\n       owneremail = _ownermail;\n    }\n    \n    function getOwnerEmail() public view returns (string memory) {\n        return owneremail;\n    }\n    \n    function addbene(string memory _benemail,uint _distriburate,string memory _identity) public checkSameOwner(msg.sender){\n       require(getBalance() > 0);\n       uint id = beneficiaryids.length + 1;\n       Beneficiary storage newbene = beneficiaryinfo[id];\n       newbene.beneficiaryemail = _benemail;\n       newbene.portion = _distriburate;\n       newbene.execute = false;\n       beneficiaryids.push(id);\n       beneficiarymails.push(_benemail);\n       mailexist[_benemail] = true;\n       portions[_benemail] = _distriburate;\n       beneficiaryidentity.push(_identity);\n       identity[_benemail]=_identity;\n       idexist[_identity]=true;\n    }\n    \n    //check beneficiary info\n    function getBeneficiary(uint _id) public view returns (string memory,uint,bool){\n        Beneficiary storage s = beneficiaryinfo[_id];\n        return (s.beneficiaryemail,s.portion,s.execute);\n    }\n\n    function getbeneficiarybymail(string memory _mail) public view returns(bool){\n        return mailexist[_mail];\n    }\n\n    function getportion(string memory _mail) public view returns(uint){\n        return portions[_mail];\n    }\n\n    function getbeneficiaryidbymail(string memory _mail) public view returns(string memory){\n        return identity[_mail];\n    }\n    //change beneficiary portion\n    function modifybene(uint _id,string memory _mail,uint _portion)public checkSameOwner(msg.sender){\n        Beneficiary storage s = beneficiaryinfo[_id];\n        s.portion = _portion;\n        portions[_mail] = _portion;\n    }\n    /*function submitTransaction(address payable _to,uint _portion) payable public {\n        toadds.push(_to);\n        transferamount[_to] = address(this).balance / 100 * _portion;\n        if (toadds.length == beneficiarymails.length) {\n           for (uint i = 0; i < toadds.length; i++) {\n             toadds[i].transfer(transferamount[toadds[i]]);  \n           }\n        }\n    }*/\n    function submitTransaction(address payable _to,uint _portion) public {\n        toadds.push(_to);\n        //reviseportion.push(_portion);\n        transferamount[_to]=address(this).balance/100*_portion;\n        if(toadds.length==beneficiarymails.length){\n           for(uint i=0;i<toadds.length;i++){\n            //    for(uint r=0;r<reviseportion.length;r++){\n            //  totalpo+=reviseportion[r];\n            //  revisepo=100*_portion/totalpo;\n            //  transferamount[_to]=address(this).balance/100*revisepo;\n                toadds[i].transfer(transferamount[toadds[i]]); \n           }\n        }\n        //_to.transfer(address(this).balance/100*_portion);}\n    }\n    \n    \n    /* not use just for check */\n    \n    function getisOwners(address _checkaddress) public view returns (bool) {\n        return isOwner[_checkaddress];\n    }\n    \n    function getEmail() public view returns (string memory) {\n        return email;\n    }\n    \n    function getPassword() public view returns (string memory) {\n        return password;\n    }\n    \n    function getOwners() public view returns (address[] memory) {\n        return owners;\n    }\n    \n    function returnlen() public view returns (uint) {\n        return beneficiarymails.length;\n    }\n\n    \n    // function submitTransaction(address payable _to) public onlyOwner(_to){\n    //     _to.transfer(address(this).balance);\n    //     activated = true;\n    // }\n}\n\n// contract Backup {\n//     MainContract maincontract;\n//     constructor (address _oneContractAddr) public {\n//         maincontract = MainContract(_oneContractAddr);\n//     }\n    \n//     function setBackup(string memory _email,string memory _password,string memory _idNo) public {\n//         maincontract.setBackup(_email,_password,_idNo);\n        \n//     }\n//     function activateBackup(string calldata _idNo, string calldata _email,string calldata _password,address payable _to) external {\n//         maincontract.checksubmitTransaction(_idNo,_email,_password,_to);\n//     }\n\n//     function getEmail() public view returns (string memory){\n//         return maincontract.getEmail();\n//     }\n//     function getIdno() public view returns (string memory){\n//         return maincontract.getIdno();\n//     }\n    \n    \n// }\n\n// contract ActivateBackup {\n//     Backup backup;\n//     constructor (address _oneContractAddr) public {\n//         backup = Backup(_oneContractAddr);\n//     }\n//     // function getbackaddress() public view returns (Backup){\n//     //     return backup;\n//     // }\n//     // function checkContract(address _contractaddress,string memory _email,string memory _password) public {\n//     //     Backup a = backup;\n//     //     backup = Backup(_contractaddress);\n//     //     activateBackup(_email,_password);\n//     //     backup = a;\n//     // }\n//     // constructor (address _oneContractAddr,string memory _email,string memory _password) public {\n//     //     backup = Backup(_oneContractAddr);\n//     //     email = _email;\n//     //     password = _password;\n\n//     // }\n//     function activateBackup(string memory _idNo, string memory _email,string memory _password) public {\n//         backup.activateBackup(_idNo,_email,_password,msg.sender);\n//     }\n    \n// }\n\ncontract setpassword {\n    MainContract maincontract;\n    bytes32 password;\n    uint portion;\n    mapping (address => bytes32) beneficiarypass;\n    mapping (string => uint) portions;\n    mapping (address => string) mail;\n    bool act;\n\n    constructor (address _oneContractAddr) public {\n        maincontract = MainContract(_oneContractAddr);\n    }\n    \n    function passset(string memory _mail,string memory _password,string memory _identity) public {\n        require(maincontract.getbeneficiarybymail(_mail) == true&&keccak256(abi.encodePacked((maincontract.getbeneficiaryidbymail(_mail))))==keccak256(abi.encodePacked(_identity)));\n        password = keccak256(abi.encode(_password));\n        beneficiarypass[msg.sender] = password;\n        mail[msg.sender] = _mail;\n        act=false;\n    }\n     \n    function getmail() public view returns (string memory) {\n        return mail[msg.sender];\n    }\n    \n    function getpassword() public view returns (bytes32) {\n        return beneficiarypass[msg.sender];\n    }\n    \n    function getmypo() public view returns (uint) {\n        return maincontract.getportion(mail[msg.sender]);\n    }\n    \n    function execute (string memory _password) public payable{\n        require(keccak256(abi.encode(_password)) == beneficiarypass[msg.sender]);\n        require(act == false);\n        portion = maincontract.getportion(mail[msg.sender]);\n        maincontract.submitTransaction(msg.sender,portion);\n        act=true;\n\n     }\n\n\n}",
  "sourcePath": "/Users/anna/Documents/GitHub/dapp-testamentary/contracts/MainContract.sol",
  "compiler": {
    "name": "solc",
    "version": "0.5.16+commit.9c3226ce.Emscripten.clang"
  },
  "schemaVersion": "3.4.1",
  "updatedAt": "2021-10-28T07:57:05.421Z",
  "devdoc": {
    "methods": {}
  },
  "userdoc": {
    "methods": {}
  }
}