{
  "contractName": "setpassword",
  "abi": [
    {
      "inputs": [
        {
          "internalType": "address",
          "name": "_oneContractAddr",
          "type": "address"
        }
      ],
      "payable": false,
      "stateMutability": "nonpayable",
      "type": "constructor"
    },
    {
      "constant": false,
      "inputs": [
        {
          "internalType": "string",
          "name": "_mail",
          "type": "string"
        },
        {
          "internalType": "string",
          "name": "_password",
          "type": "string"
        }
      ],
      "name": "passset",
      "outputs": [],
      "payable": false,
      "stateMutability": "nonpayable",
      "type": "function"
    },
    {
      "constant": true,
      "inputs": [],
      "name": "getmail",
      "outputs": [
        {
          "internalType": "string",
          "name": "",
          "type": "string"
        }
      ],
      "payable": false,
      "stateMutability": "view",
      "type": "function"
    },
    {
      "constant": true,
      "inputs": [],
      "name": "getpassword",
      "outputs": [
        {
          "internalType": "bytes32",
          "name": "",
          "type": "bytes32"
        }
      ],
      "payable": false,
      "stateMutability": "view",
      "type": "function"
    },
    {
      "constant": true,
      "inputs": [],
      "name": "getmypo",
      "outputs": [
        {
          "internalType": "uint256",
          "name": "",
          "type": "uint256"
        }
      ],
      "payable": false,
      "stateMutability": "view",
      "type": "function"
    },
    {
      "constant": false,
      "inputs": [
        {
          "internalType": "string",
          "name": "_password",
          "type": "string"
        }
      ],
      "name": "execute",
      "outputs": [],
      "payable": true,
      "stateMutability": "payable",
      "type": "function"
    },
    {
      "constant": false,
      "inputs": [
        {
          "internalType": "address",
          "name": "_oneContractAddr",
          "type": "address"
        },
        {
          "internalType": "string",
          "name": "_email",
          "type": "string"
        },
        {
          "internalType": "string",
          "name": "_password",
          "type": "string"
        }
      ],
      "name": "checkContract",
      "outputs": [],
      "payable": false,
      "stateMutability": "nonpayable",
      "type": "function"
    }
  ],
  "bytecode": "0x608060405234801561001057600080fd5b50604051610ef7380380610ef78339818101604052602081101561003357600080fd5b8101908080519060200190929190505050806000806101000a81548173ffffffffffffffffffffffffffffffffffffffff021916908373ffffffffffffffffffffffffffffffffffffffff16021790555050610e63806100946000396000f3fe6080604052600436106100555760003560e01c806327e2e83b1461005a5780632ce1435b146100855780637745f57514610204578063ad42a0b514610363578063bd590d7e1461038e578063fe80479c14610449575b600080fd5b34801561006657600080fd5b5061006f6104d9565b6040518082815260200191505060405180910390f35b34801561009157600080fd5b50610202600480360360608110156100a857600080fd5b81019080803573ffffffffffffffffffffffffffffffffffffffff169060200190929190803590602001906401000000008111156100e557600080fd5b8201836020820111156100f757600080fd5b8035906020019184600183028401116401000000008311171561011957600080fd5b91908080601f016020809104026020016040519081016040528093929190818152602001838380828437600081840152601f19601f8201169050808301925050505050505091929192908035906020019064010000000081111561017c57600080fd5b82018360208201111561018e57600080fd5b803590602001918460018302840111640100000000831117156101b057600080fd5b91908080601f016020809104026020016040519081016040528093929190818152602001838380828437600081840152601f19601f82011690508083019250505050505050919291929050505061064d565b005b34801561021057600080fd5b506103616004803603604081101561022757600080fd5b810190808035906020019064010000000081111561024457600080fd5b82018360208201111561025657600080fd5b8035906020019184600183028401116401000000008311171561027857600080fd5b91908080601f016020809104026020016040519081016040528093929190818152602001838380828437600081840152601f19601f820116905080830192505050505050509192919290803590602001906401000000008111156102db57600080fd5b8201836020820111156102ed57600080fd5b8035906020019184600183028401116401000000008311171561030f57600080fd5b91908080601f016020809104026020016040519081016040528093929190818152602001838380828437600081840152601f19601f820116905080830192505050505050509192919290505050610703565b005b34801561036f57600080fd5b50610378610955565b6040518082815260200191505060405180910390f35b610447600480360360208110156103a457600080fd5b81019080803590602001906401000000008111156103c157600080fd5b8201836020820111156103d357600080fd5b803590602001918460018302840111640100000000831117156103f557600080fd5b91908080601f016020809104026020016040519081016040528093929190818152602001838380828437600081840152601f19601f82011690508083019250505050505050919291929050505061099c565b005b34801561045557600080fd5b5061045e610caa565b6040518080602001828103825283818151815260200191508051906020019080838360005b8381101561049e578082015181840152602081019050610483565b50505050905090810190601f1680156104cb5780820380516001836020036101000a031916815260200191505b509250505060405180910390f35b60008060009054906101000a900473ffffffffffffffffffffffffffffffffffffffff1673ffffffffffffffffffffffffffffffffffffffff166336d587c5600560003373ffffffffffffffffffffffffffffffffffffffff1673ffffffffffffffffffffffffffffffffffffffff1681526020019081526020016000206040518263ffffffff1660e01b815260040180806020018281038252838181546001816001161561010002031660029004815260200191508054600181600116156101000203166002900480156105ef5780601f106105c4576101008083540402835291602001916105ef565b820191906000526020600020905b8154815290600101906020018083116105d257829003601f168201915b50509250505060206040518083038186803b15801561060d57600080fd5b505afa158015610621573d6000803e3d6000fd5b505050506040513d602081101561063757600080fd5b8101908080519060200190929190505050905090565b60008060009054906101000a900473ffffffffffffffffffffffffffffffffffffffff169050836000806101000a81548173ffffffffffffffffffffffffffffffffffffffff021916908373ffffffffffffffffffffffffffffffffffffffff1602179055506106bd8383610703565b806000806101000a81548173ffffffffffffffffffffffffffffffffffffffff021916908373ffffffffffffffffffffffffffffffffffffffff16021790555050505050565b600115156000809054906101000a900473ffffffffffffffffffffffffffffffffffffffff1673ffffffffffffffffffffffffffffffffffffffff16633f1fb69d846040518263ffffffff1660e01b81526004018080602001828103825283818151815260200191508051906020019080838360005b83811015610794578082015181840152602081019050610779565b50505050905090810190601f1680156107c15780820380516001836020036101000a031916815260200191505b509250505060206040518083038186803b1580156107de57600080fd5b505afa1580156107f2573d6000803e3d6000fd5b505050506040513d602081101561080857600080fd5b810190808051906020019092919050505015151461082557600080fd5b806040516020018080602001828103825283818151815260200191508051906020019080838360005b8381101561086957808201518184015260208101905061084e565b50505050905090810190601f1680156108965780820380516001836020036101000a031916815260200191505b509250505060405160208183030381529060405280519060200120600181905550600154600360003373ffffffffffffffffffffffffffffffffffffffff1673ffffffffffffffffffffffffffffffffffffffff1681526020019081526020016000208190555081600560003373ffffffffffffffffffffffffffffffffffffffff1673ffffffffffffffffffffffffffffffffffffffff1681526020019081526020016000209080519060200190610950929190610d89565b505050565b6000600360003373ffffffffffffffffffffffffffffffffffffffff1673ffffffffffffffffffffffffffffffffffffffff16815260200190815260200160002054905090565b600360003373ffffffffffffffffffffffffffffffffffffffff1673ffffffffffffffffffffffffffffffffffffffff16815260200190815260200160002054816040516020018080602001828103825283818151815260200191508051906020019080838360005b83811015610a20578082015181840152602081019050610a05565b50505050905090810190601f168015610a4d5780820380516001836020036101000a031916815260200191505b50925050506040516020818303038152906040528051906020012014610a7257600080fd5b6000809054906101000a900473ffffffffffffffffffffffffffffffffffffffff1673ffffffffffffffffffffffffffffffffffffffff166336d587c5600560003373ffffffffffffffffffffffffffffffffffffffff1673ffffffffffffffffffffffffffffffffffffffff1681526020019081526020016000206040518263ffffffff1660e01b81526004018080602001828103825283818154600181600116156101000203166002900481526020019150805460018160011615610100020316600290048015610b865780601f10610b5b57610100808354040283529160200191610b86565b820191906000526020600020905b815481529060010190602001808311610b6957829003601f168201915b50509250505060206040518083038186803b158015610ba457600080fd5b505afa158015610bb8573d6000803e3d6000fd5b505050506040513d6020811015610bce57600080fd5b81019080805190602001909291905050506002819055506000809054906101000a900473ffffffffffffffffffffffffffffffffffffffff1673ffffffffffffffffffffffffffffffffffffffff16631d43b653336002546040518363ffffffff1660e01b8152600401808373ffffffffffffffffffffffffffffffffffffffff1673ffffffffffffffffffffffffffffffffffffffff16815260200182815260200192505050600060405180830381600087803b158015610c8f57600080fd5b505af1158015610ca3573d6000803e3d6000fd5b5050505050565b6060600560003373ffffffffffffffffffffffffffffffffffffffff1673ffffffffffffffffffffffffffffffffffffffff1681526020019081526020016000208054600181600116156101000203166002900480601f016020809104026020016040519081016040528092919081815260200182805460018160011615610100020316600290048015610d7f5780601f10610d5457610100808354040283529160200191610d7f565b820191906000526020600020905b815481529060010190602001808311610d6257829003601f168201915b5050505050905090565b828054600181600116156101000203166002900490600052602060002090601f016020900481019282601f10610dca57805160ff1916838001178555610df8565b82800160010185558215610df8579182015b82811115610df7578251825591602001919060010190610ddc565b5b509050610e059190610e09565b5090565b610e2b91905b80821115610e27576000816000905550600101610e0f565b5090565b9056fea265627a7a7231582094ab55d550dcbf753e1f8aba1d39beca2275116b0dd65c5785b880225a64989c64736f6c63430005100032",
  "source": "// SPDX-License-Identifier: MIT\npragma solidity <= 0.7.6;\n\ncontract MainContract {\n    \n    /* backup variable */\n    string email; \n    string password;\n    address[] owners;\n    address mainowner;\n    mapping(address => bool) isOwner;\n    uint revisepo;\n    uint totalpo;\n    \n    //event\n    event Deposit(address user,uint deamount);\n    event Withdraw(address user,uint wiamount);\n    \n    //modifier\n    modifier onlyOwner (address addr){\n        require(isOwner[addr], \"not owner\");\n        _;\n    }\n    \n    modifier checkSameOwner (address addr){\n        require(mainowner == addr, \"not contract owner\");\n        _;\n    }\n    \n    constructor () public {\n        email = \"\";\n        password = \"\";\n        owners = [msg.sender];\n        mainowner = msg.sender;\n        isOwner[msg.sender] = true;\n    }\n    \n    /* bank function */\n    \n    //deposit\n    function deposit() public payable checkSameOwner(msg.sender){\n        emit Deposit(msg.sender,msg.value);\n    }\n    \n    //withdraw\n    function withdraw(uint _amount) public payable checkSameOwner(msg.sender){\n        require((_amount) <= address(this).balance, \"not enough funds\");\n        (bool sent, ) = msg.sender.call.value(_amount)(\"\");\n        require(sent, \"Failed to send Ether\");\n        emit Withdraw(msg.sender,_amount*10**18);\n    }\n    \n    //balance\n    function getBalance() public view returns (uint) {\n        return address(this).balance;\n    }\n\n    /* backup function */\n    \n    //create back-up, setting email and password\n    function setBackup(string calldata _email,string calldata _password,address _call) external checkSameOwner(_call){\n        email = _email;\n        password = _password;\n    }\n    \n    //check email and password\n    function checksubmitTransaction(string calldata _email,string calldata _password,address payable _to) external {\n        require(keccak256(abi.encodePacked((email))) != keccak256(abi.encodePacked((\"\"))),\"Do not set the back-up mechanism email.\");\n        require(keccak256(abi.encodePacked((_email))) == keccak256(abi.encodePacked((email))),\"Please enter the former email.\");\n        require(keccak256(abi.encodePacked((password))) != keccak256(abi.encodePacked((\"\"))),\"Do not set the back-up mechanism password.\");\n        require(keccak256(abi.encodePacked((_password))) == keccak256(abi.encodePacked((password))),\"Please enter the former password.\");\n        addOwners(_to);\n        destroySmartContract(_to);\n    }\n    \n    //add the activater into owers to activate the mechanism\n    function addOwners(address _newaddress) private{\n        owners.push(_newaddress);\n        isOwner[_newaddress] = true;\n    }\n    \n    //destroy the contract and take the ether back\n    function destroySmartContract(address payable _to) internal onlyOwner(_to){\n        selfdestruct(_to);\n    }\n    \n    /* beneficiary variable */\n    \n    string owneremail; \n    struct Beneficiary{\n        string beneficiaryemail;\n        uint portion;\n        bool execute;\n    }\n    mapping(uint=>Beneficiary) beneficiaryinfo;\n    uint[]  beneficiaryids;\n    string[] beneficiarymails;\n    mapping(string=>bool) mailexist;\n    mapping(string=>uint) portions;\n    mapping(address=>uint) transferamount;\n    address payable[] toadds;\n    uint[] reviseportion;\n    \n    /* beneficiary function */\n    \n    //ower email\n    function submitEmail(string memory _ownermail) public {\n       owneremail = _ownermail;\n    }\n    \n    function getOwnerEmail() public view returns (string memory) {\n        return owneremail;\n    }\n    \n    //add beneficiary\n    function create() public{\n        addbene(\"barbie@mail\",0);\n    }\n    \n    function addbene(string memory _benemail,uint _distriburate) public checkSameOwner(msg.sender){\n       require(getBalance() > 0);\n       uint id = beneficiaryids.length + 1;\n       Beneficiary storage newbene = beneficiaryinfo[id];\n       newbene.beneficiaryemail = _benemail;\n       newbene.portion = _distriburate;\n       newbene.execute = false;\n       beneficiaryids.push(id);\n       beneficiarymails.push(_benemail);\n       mailexist[_benemail] = true;\n       portions[_benemail] = _distriburate;\n    }\n    \n    //check beneficiary info\n    function getBeneficiary(uint _id) public view returns (string memory,uint,bool){\n        Beneficiary storage s = beneficiaryinfo[_id];\n        return (s.beneficiaryemail,s.portion,s.execute);\n    }\n\n    function getbeneficiarybymail(string memory _mail) public view returns(bool){\n        return mailexist[_mail];\n    }\n    function getportion(string memory _mail) public view returns(uint){\n        return portions[_mail];\n    }\n    \n    //change beneficiary portion\n    function modifybene(uint _id,string memory _mail,uint _portion)public checkSameOwner(msg.sender){\n        Beneficiary storage s = beneficiaryinfo[_id];\n        s.portion = _portion;\n        portions[_mail] = _portion;\n    }\n    /*function submitTransaction(address payable _to,uint _portion) payable public {\n        toadds.push(_to);\n        transferamount[_to] = address(this).balance / 100 * _portion;\n        if (toadds.length == beneficiarymails.length) {\n           for (uint i = 0; i < toadds.length; i++) {\n             toadds[i].transfer(transferamount[toadds[i]]);  \n           }\n        }\n    }*/\n    function submitTransaction(address payable _to,uint _portion) public {\n        toadds.push(_to);\n        reviseportion.push(_portion);\n        //transferamount[_to]=address(this).balance/100*_portion;\n        if(toadds.length==beneficiarymails.length){\n           for(uint i=0;i<toadds.length;i++){\n               for(uint r=0;r<reviseportion.length;r++){\n             totalpo+=reviseportion[r];\n             revisepo=100*_portion/totalpo;\n             transferamount[_to]=address(this).balance/100*revisepo;\n             toadds[i].transfer(transferamount[toadds[i]]);}  \n           }\n        }\n        //_to.transfer(address(this).balance/100*_portion);}\n    }\n    \n    \n    /* not use just for check */\n    \n    function getisOwners(address _checkaddress) public view returns (bool) {\n        return isOwner[_checkaddress];\n    }\n    \n    function getEmail() public view returns (string memory) {\n        return email;\n    }\n    \n    function getPassword() public view returns (string memory) {\n        return password;\n    }\n    \n    function getOwners() public view returns (address[] memory) {\n        return owners;\n    }\n    \n    function returnlen() public view returns (uint) {\n        return beneficiarymails.length;\n    }\n\n    \n    // function submitTransaction(address payable _to) public onlyOwner(_to){\n    //     _to.transfer(address(this).balance);\n    //     activated = true;\n    // }\n}\n\ncontract Backup {\n    MainContract maincontract;\n    constructor (address _oneContractAddr) public {\n        maincontract = MainContract(_oneContractAddr);\n    }\n    \n    function setBackup(string memory _email,string memory _password) public {\n        maincontract.setBackup(_email,_password,msg.sender);\n        \n    }\n    function activateBackup(string calldata _email,string calldata _password,address payable _to) external {\n        maincontract.checksubmitTransaction(_email,_password,_to);\n    }\n\n    function getEmail() public view returns (string memory){\n        return maincontract.getEmail();\n    }\n    \n    \n}\n\ncontract ActivateBackup {\n    Backup backup;\n    constructor (address _oneContractAddr) public {\n        backup = Backup(_oneContractAddr);\n    }\n    // function getbackaddress() public view returns (Backup){\n    //     return backup;\n    // }\n    // function checkContract(address _contractaddress,string memory _email,string memory _password) public {\n    //     Backup a = backup;\n    //     backup = Backup(_contractaddress);\n    //     activateBackup(_email,_password);\n    //     backup = a;\n    // }\n    // constructor (address _oneContractAddr,string memory _email,string memory _password) public {\n    //     backup = Backup(_oneContractAddr);\n    //     email = _email;\n    //     password = _password;\n\n    // }\n    function activateBackup(string memory _email,string memory _password) public {\n        backup.activateBackup(_email,_password,msg.sender);\n    }\n    \n}\n\ncontract setpassword {\n    MainContract maincontract;\n    bytes32 password;\n    uint portion;\n    mapping (address => bytes32) beneficiarypass;\n    mapping (string => uint) portions;\n    mapping (address => string) mail;\n    \n    constructor (address _oneContractAddr) public {\n        maincontract = MainContract(_oneContractAddr);\n    }\n    \n    function passset(string memory _mail,string memory _password) public {\n        require(maincontract.getbeneficiarybymail(_mail) == true);\n        password = keccak256(abi.encode(_password));\n        beneficiarypass[msg.sender] = password;\n        mail[msg.sender] = _mail;\n    }\n     \n    function getmail() public view returns (string memory) {\n        return mail[msg.sender];\n    }\n    \n    function getpassword() public view returns (bytes32) {\n        return beneficiarypass[msg.sender];\n    }\n    \n    function getmypo() public view returns (uint) {\n        return maincontract.getportion(mail[msg.sender]);\n    }\n    \n    function execute (string memory _password) public payable{\n        require(keccak256(abi.encode(_password)) == beneficiarypass[msg.sender]);\n        portion = maincontract.getportion(mail[msg.sender]);\n        maincontract.submitTransaction(msg.sender,portion);\n     }\n\n    //抄的\n    function checkContract(address _oneContractAddr,string memory _email, string memory _password) public {\n        MainContract a = maincontract;\n        maincontract = MainContract(_oneContractAddr);\n        passset(_email, _password);\n        maincontract = a;\n    }\n\n}",
  "sourcePath": "/Users/anna/Documents/GitHub/dapp-testamentary/contracts/MainContract.sol",
  "compiler": {
    "name": "solc",
    "version": "0.5.16+commit.9c3226ce.Emscripten.clang"
  },
  "schemaVersion": "3.4.1",
  "updatedAt": "2021-08-10T04:52:42.173Z",
  "networkType": "ethereum",
  "devdoc": {
    "methods": {}
  },
  "userdoc": {
    "methods": {}
  }
}